:020000040800F2
:100000004820002065120008F9050008FB050008DB
:10001000FF050008030600080706000800000000AE
:100020000000000000000000000000000B060008B7
:100030000D060008000000006744000801100008D9
:100040007F1200087F1200087F1200087F1200084C
:100050007F1200087F120008150900087F120008AF
:100060007F1200087F1200087F1200087F1200082C
:100070007F1200087F1200087F1200087F1200081C
:100080007F1200087F1200087F1200087F1200080C
:100090007F1200087F1200087F1200085B09000829
:1000A0007F1200087F1200087F1200087F120008EC
:1000B0007F1200087F1200087F1200087F120008DC
:1000C0007F1200087F1200087F1200087F120008CC
:1000D0007F120008D11100087F1200087F1200086B
:1000E000870900087F1200087F1200087F120008AD
:1000F0007F1200087F1200087F1200087F1200089C
:100100007F1200087F1200087F1200087F1200088B
:100110007F1200087F1200087F1200087F1200087B
:100120007F1200087F1200087F1200087F1200086B
:1001300000F002F800F047F80AA090E8000C8244B2
:100140008344AAF10107DA4501D100F03CF8AFF28F
:10015000090EBAE80F0013F0010F18BFFB1A43F0A5
:1001600001031847745F0000945F0000103A24BF39
:1001700078C878C1FAD8520724BF30C830C144BF0C
:1001800004680C607047000000230024002500264E
:10019000103A28BF78C1FBD8520728BF30C148BFEA
:1001A0000B607047662905F0CB86002070471FB5AD
:1001B00004F088FC04000020002105F0B1F9E060A3
:1001C0001FBD10B510BD04F099FD1146FFF7EFFFFC
:1001D00000F097F904F0B7FD03B4FFF7F2FF03BC9A
:1001E00000F098FF8EB00026DFA70FF2843828E0D9
:1001F000E148008800F4004000B3DF480088C0F305
:100200000D05002404E0DD48005D01A90855641CCB
:10021000AC42F8DB002001A9085504F0FDF80646C1
:10022000394601A804F0E8F9414601A804F0E4F9D0
:10023000304604F0F5F80020CF490880C82003F0CC
:10024000BBFFD5E72DE9F04F89B005460E461746AE
:1002500098463846414605F085FB834600242846EB
:10026000314605F07FFB8146484605F0D8FB2A461B
:100270003346CDE9040105F06DFDCDE90601A24646
:100280000CE00A2099FBF0F100FB1190BC4901F849
:100290000A000A2099FBF0F90AF1010AB9F1000FEE
:1002A000EFD10AE00A209BFBF0F100FB11B0B54949
:1002B00008550A209BFBF0FB641CBBF1000FF1D139
:1002C000AAF10100AE49085C3030C2B2002105201D
:1002D00000F011FEAAF10200A949085C3030C2B258
:1002E0000021062000F007FE0022A74BDDE90601F1
:1002F00005F0FCFB0022A54BCDE9000105F026F935
:10030000CDE9020105F05EFBC0B202460021059076
:10031000082000F0F0FD9E4800783030C2B2002185
:100320000B2000F0E8FD601E9649085C3030C2B238
:100330000121042000F0DFFDA01E9249085C30304E
:10034000C2B20121052000F0D6FD09B0BDE8F08F52
:1003500010B590A20021084600F0E5FD8FA2002113
:10036000072000F0E0FD8EA20021092000F0DBFD57
:100370008CA20121002000F0D6FD8CA201210720D3
:1003800000F0D1FD10BD08B500BFFFF7E1FF11E09F
:100390006A4600218648006802F0EBFE0446D4E974
:1003A00000733A46D4E902512846FFF74BFF642018
:1003B00003F002FFECE70EB5002519E002AA0021C8
:1003C0007B48006802F0D5FE044604F025F8054697
:1003D000D4E90001CDE90001D4E90263324675A0F9
:1003E00004F076F8284604F01BF8642003F0E4FEDD
:1003F000E4E71FB500BF52E0774800F0BFFC58BBF0
:100400007549487805F022FB804600225E4B05F0D6
:1004100051F904460D467049087805F017FB064669
:1004200022462B4605F092F8CDE900016A49C878CA
:1004300005F00CFB06460022534B05F03BF9044641
:100440000D466549887805F001FB804622462B461B
:1004500005F07CF8CDE902016048006808B9012088
:1004600000E000205D49086000225D4BDDE90241AB
:10047000204605F039FC09D25848001D006808B92B
:10048000012000E000205549091D086069464848E0
:10049000006802F029FF4FF4967003F08DFEABE781
:1004A00070B50446002500BF01F0E2FF002002F015
:1004B000DAFD3F49086003F0AFFF05460623494ACD
:1004C0000021AFF2D10003F02FFB0523464A0021A3
:1004D000AFF21D1003F028FB0523444A0021AFF2C0
:1004E000591003F021FB0423414A0021AFF20B30E5
:1004F00003F01AFB0A2003F097FD284603F090FF53
:1005000070BD10B500F088FD4FF4A06000F0CAFE89
:100510004FF4E13000F00DFE00F06AF900F090F9C0
:1005200001202E49086000F061FC00F021FD01F07F
:1005300062FE0A232F4A0021AFF29B0003F0F4FA77
:1005400001F07EFF002010BD0CE000F087FB234887
:10055000006808B9012000E000202049086032202E
:1005600003F02AFEF1E700006F70656E00000000E6
:10057000636C6F736500000040000020A00A00203B
:10058000090000200D000020000024400000484029
:100590000000002054656D703D0000002E0000003A
:1005A0004300000048756D3D00000000250000007C
:1005B0001400002074656D70657261747572653A1F
:1005C000252E32662C68756D69646E6573733A25E5
:1005D0002E3266200A00000004000020A081214283
:1005E000000034409C0400209C0600209C08002051
:1005F0009C0A00209C020020704700BFFEE700BF5D
:10060000FEE700BFFEE700BFFEE77047704700004F
:100610000CB50020019000906C48006840F48030D8
:100620006A49086000BF6948006800F40030009023
:100630000198401C0190009818B90198B0F5A06F7E
:10064000F1D16248006800F4003010B10120009040
:1006500001E0002000900098012843D15C48006828
:1006600040F010005A4908600846006820F0030076
:1006700008600846006840F002000860534840687F
:10068000524948600846406848600846406840F45F
:10069000806048600846406820F47C104860084646
:1006A000406840F4E81048600846006840F08070F8
:1006B000086000BF4548006800F000700028F9D0CD
:1006C0004248406820F003004049486008464068BE
:1006D00040F00200486000BF3C48406800F00C0059
:1006E0000828F9D10CBD10B5FFF792FF10BD10B569
:1006F0003648006840F00100344908600846406808
:100700003449084031494860084600683249084089
:100710002E4908600846006820F4802008600846DA
:10072000406820F4FE0048604FF41F008860FFF727
:10073000DAFF4FF000602949086010BD10B50021B4
:1007400000200022214B5B6803F00C0121B1042939
:1007500006D0082928D107E0214B224C236027E04E
:100760001F4B204C236023E0184B5B6803F4701090
:10077000164B5B6803F48032022303EB904022B9EE
:10078000194B4343174C23600DE0104B5B6803F497
:10079000003323B1144B4343124C236003E0104B4E
:1007A0004343104C236003E00D4B0E4C236000BF0D
:1007B00000BF064B5B68C3F303130C4CE15C094BB1
:1007C0001B68CB40074C236010BD000000100240A6
:1007D000002002400000FFF8FFFFF6FE08ED00E0F9
:1007E00000127A002000002000093D0024000020B3
:1007F00008B50121282001F0E3FA4FF48070ADF82C
:10080000000010208DF8030003208DF802006946D7
:100810000A4800F015FE4FF48071084800F0BDFE54
:100820004FF40070ADF800006946044800F008FE7F
:100830004FF40071014800F0B0FE08BD000C01400B
:100840000EB50121084601F0BBFA00F0BBF8052106
:10085000012000F00BFF2020019000208DF80800FF
:100860000C208DF8090001208DF80A0001A801F084
:1008700019FB0621012000F0F9FE4FF40040019021
:1008800000208DF808000C208DF8090001208DF85B
:100890000A0001A801F006FB0721012000F0E6FE96
:1008A0000120019000208DF8080008208DF8090033
:1008B00001208DF80A0001A801F0F4FA06208DF855
:1008C000000002208DF801008DF8020001208DF853
:1008D0000300684600F0EBFC17208DF800000220B2
:1008E0008DF8010001208DF802008DF803006846A4
:1008F00000F0DDFC28208DF8000002208DF80100BA
:1009000000208DF8020001208DF80300684600F0F9
:10091000CEFC0EBD10B501F084FC0A2000F0CDFB2A
:100920008021244800F01FFE88B92348006808B9D8
:10093000012000E00020204908602048D0F8A401F0
:1009400008B9012000E000201B49091D08600120B2
:1009500001F01FFB01F080FC10BD10B501F061FC3F
:100960000A2000F0AAFB2021124800F0FCFD20B96B
:1009700013480068401C12490860202001F009FB60
:1009800001F06AFC10BD10B501F04BFC0A2000F02C
:1009900094FB4021074800F0E6FD20B908480068B4
:1009A000401E074908604FF4004001F0F2FA01F0E0
:1009B00053FC10BD000C0140A08121420080214267
:1009C0000000002008B50121182001F0F9F90121EB
:1009D000354800F006FE4020ADF8000048208DF8B4
:1009E00003006946314800F02BFD2020ADF80000DF
:1009F00048208DF8030069462C4800F021FD802036
:100A0000ADF8000028208DF803006946274800F063
:100A100017FD08BD10B5044614B101202449087023
:100A20002348007848B32021204800F09CFD48B1BD
:100A300040211E4800F097FD20B180211B4800F0A6
:100A400092FDD0B90A2000F038FB00201849087048
:100A50002021164800F087FD08B9012010BD402173
:100A6000124800F080FD08B90220F7E780210F4806
:100A700000F079FDA8B90320F0E720210B4800F031
:100A800072FD01280DD12021084800F06CFD0128DD
:100A900007D10121074800F066FD10B90120044983
:100AA00008700020DAE7000000023000000C01406E
:100AB000340000200008014010B50024704880690F
:100AC00040F008006E4988616E48006840F0800080
:100AD0006C4908606B480C38006820F07040694928
:100AE0000C3908600846006840F04050086000205B
:100AF0006549086040F2822000F0B4FA01206349A1
:100B0000C1F89C011E2000F0ADFA5E480C38006868
:100B100020F070405B490C3908600846006840F0DE
:100B20000040086007E0012000F0C7FA641C052CB3
:100B300001DD002010BD5448803800680128F2D043
:100B40000120F7E770B504464E480C38006820F0E5
:100B500070404C490C3908600846006840F040502D
:100B60000860002512E00020474908600F2000F0CF
:100B700079FA04F001004549C1F89C013C2000F0DD
:100B800071FA01204049086064106D1C082DEADBF1
:100B900070BD70B5082443E03A480C38006820F076
:100BA000704038490C3908600846006840F04050F1
:100BB0000860002034490860012000F053FA012049
:100BC0003249C1F89C010A2000F04CFA2D480C383B
:100BD000006820F070402B490C3908600846006816
:100BE00040F000400860284880380068C6B26810AD
:100BF00040EAC610C5B22D2000F034FA21480C3866
:100C0000006820F070401F490C39086008460068F1
:100C100040F04050086001201C49C1F89C01641E4E
:100C2000002CB9DC284670BD10B5FFF745FF012048
:100C300000F043FACC20FFF785FF4420FFF782FF46
:100C400010BD10B5FFF738FF012000F036FACC20B8
:100C5000FFF778FFBE20FFF775FF10BD70B50024C9
:100C6000FFF7E2FFFFF7EDFFFFF793FF0646FFF701
:100C700090FF05462C4624023443204670BD0000F8
:100C8000001002400C0C01409C8121420080214256
:100C900008B50121102001F093F84FF40050ADF891
:100CA000000003208DF8020004208DF8030069463F
:100CB0004D4800F0C5FB08BD08B50121102001F02A
:100CC0007FF84FF40050ADF8000003208DF80200CB
:100CD00010208DF803006946434800F0B1FB08BDC1
:100CE00010B5FFF7E9FF4FF400513F4800F057FC03
:100CF00044F6382000F0B6F94FF400513A4800F0BD
:100D00004CFC1E2000F0AEF9FFF7C2FF10BD10B57D
:100D10004FF40051344800F026FC10BD10B500BF60
:100D20004FF40051304800F01EFC0028F8D0282075
:100D300000F098F94FF400512B4800F014FC012802
:100D400009D100BF4FF40051274800F00CFC0128E6
:100D5000F8D0012010BD0020FCE770B5002400256C
:100D600008E04FF6FF7000EA4404FFF7D7FF0443A2
:100D7000681C85B2082DF4DB204670BD70B50446B2
:100D80000025FFF7ADFFFFF7C2FF58BB00BFFFF71D
:100D9000BEFF0028FBD000BFFFF7B9FF0128FBD042
:100DA000002504E0FFF7D9FF6055681C85B2052DCA
:100DB000F8DB00BFFFF7ABFF0028FBD0FFF77CFF9D
:100DC0004FF40051084800F0E8FB207861780844AF
:100DD000A1780844E1780844C6B22079B04201D035
:100DE000012070BD0020FCE70010014008B5012182
:100DF000192000F0E5FF40F2FF70ADF80000102070
:100E00008DF8030003208DF802006946734800F056
:100E100017FB0220ADF800006946714800F010FB96
:100E200008BD10B5044602216D4800F0B8FB012052
:100E300000F018F94FF48071684800F0B0FB012011
:100E400000F010F94FF40071644800F0A8FB0A208C
:100E500000F008F96148C06800F47F4020435F4912
:100E6000C8604FF4C87000F0FDF802215C4800F043
:100E700094FB4FF4C87000F0F5F80221584800F0D8
:100E80008EFB4FF4967000F0EDF810BD10B50446DF
:100E90000221534800F083FB012000F0E3F84FF4F7
:100EA00080714E4800F079FB012000F0DBF84FF430
:100EB00000714A4800F073FB0A2000F0D3F847485D
:100EC000C06800F47F4020434449C8604FF49670E6
:100ED00000F0C8F80221424800F05FFB4FF4C870F0
:100EE00000F0C0F802213E4800F059FB4FF4967024
:100EF00000F0B8F810BD70B504460D4616462DB981
:100F000004F18001C8B2FFF78CFF04E004F1C001D6
:100F1000C8B2FFF786FF3046FFF7B8FF4FF4FA700C
:100F200000F0A0F870BD70B505460E4614462EB907
:100F300005F18001C8B2FFF774FF04E005F1C001BC
:100F4000C8B2FFF76EFF07E02078FFF79FFF641C31
:100F50004FF4FA7000F086F820780028F4D170BDC4
:100F600010B50120FFF75DFF052000F0A6F810BDC9
:100F700010B5642000F0A1F83820FFF752FF0A20D6
:100F800000F09BF83820FFF74CFF0A2000F095F89E
:100F90003820FFF746FF0A2000F08FF83820FFF7CF
:100FA00040FF0A2000F089F80820FFF73AFF0A20E6
:100FB00000F083F80120FFF734FF0A2000F07DF8ED
:100FC0000620FFF72EFF0A2000F077F80C20FFF72D
:100FD00028FF0A2000F071F810BD00000010014049
:100FE000000C014010B501F06FF910BD10B501F013
:100FF000B0F910BD10B50446204603F0DDF810BD71
:1010000010B53E480078012805D101F00AF901F039
:101010004EFA01F021F910BD10B56FF0040000F098
:1010200090F9374800683749B0FBF1F0364908704D
:10103000334800683349B0FBF1F441F2883044434F
:101040000520324908804FF0E020006940F002009E
:101050004FF0E021086108464461006940F001005A
:10106000086110BD2DE9F047074600264FF0E0204B
:10107000D0F814902448007807FB00F800BFFFF771
:10108000B1FF4FF0E020856911E04FF0E020846966
:10109000AC420CD0AC4202D2281B064403E0A9EBC0
:1010A0000400284406442546464500D300E0ECE70A
:1010B00000BFFFF79BFFBDE8F08770B504460F48FF
:1010C0000078A0B11248007888B91048008884429E
:1010D00006DB0E48008894FBF0F52846FFF78AFFF0
:1010E0000A48008894FBF0F100FB114084B24FF4F1
:1010F0007A7104FB01F0FFF7B5FF70BD7E000020A0
:101100002000002000127A00360000203800002065
:1011100071000020014600BF704700BF4D4A128891
:1011200002F04002002AF9D0C2B24A4B1B1D1A80BD
:10113000704710B586B00446012144F2040000F067
:101140003FFE444800F0CAFA4FF40070ADF81400B6
:1011500003208DF8160018208DF8170005A93E48C9
:1011600000F06EF94FF48060ADF8140004208DF8A3
:10117000170005A9384800F063F925208DF8000014
:1011800003208DF801008DF8020001208DF8030086
:10119000684600F08CF801940020ADF80800ADF826
:1011A0000A00ADF80C00ADF810000C20ADF80E00F0
:1011B00001A9284800F0D5FA012240F2255125481E
:1011C00000F067FB0121234800F057FB06B010BD7B
:1011D00010B501F026F840F225511E4800F03EFC03
:1011E00010B31C4800F0BAFBC4B21C48008800F4DD
:1011F0000040C8B91948008800F4804060B10A2C4A
:1012000003D000201549088020E01448008840F4ED
:1012100000401249088019E00D2C06D10F480088C3
:1012200040F480400D49088010E00C480088C0F36D
:101230000D000B490C5409480088401C07490880E0
:1012400008460088C72801DD0020088001F004F866
:1012500010BD00000038014000080140400000209F
:10126000A00A00200948804709480047FEE7FEE73A
:10127000FEE7FEE7FEE7FEE7FEE7FEE7FEE7FEE746
:1012800004480549054A064B70470000EF06000870
:10129000310100084816002048200020481800208E
:1012A0004818002031490143314A1160704770B538
:1012B000002100230F22C47804B32D4C246804F4C9
:1012C000E064C4F5E064210AC1F10403CA40447833
:1012D00004FA03F18478144021430901254C06786F
:1012E000A155047804F01F050124AC4005786D1168
:1012F000AD0005F1E025C5F8004109E0047804F0EF
:101300001F050124AC401C4D0678761145F8264097
:1013100070BD1A4A0A400243154B1B1F1A607047E2
:1013200039B1134A121D12680243114B1B1D1A607A
:1013300006E00F4A121D126882430D4B1B1D1A60F6
:101340007047042808D14FF0E021096941F00401F9
:101350004FF0E022116107E04FF0E021096921F030
:1013600004014FF0E0221161704700000000FA050F
:101370000CED00E000E400E080E100E080FFFF1FF2
:1013800010B50446CC48844208D10121042000F065
:1013900031FD0021042000F02DFD46E0C7488442C5
:1013A00008D10121082000F025FD0021082000F0CF
:1013B00021FD3AE0C248844208D10121102000F00A
:1013C00019FD0021102000F015FD2EE0BD488442DB
:1013D00008D10121202000F00DFD0021202000F087
:1013E00009FD22E0B848844208D10121402000F0E4
:1013F00001FD0021402000F0FDFC16E0B3488442CE
:1014000008D10121802000F0F5FC0021802000F0AF
:10141000F1FC0AE0AE48844207D10121801500F0BA
:10142000E9FC0021A01500F0E5FC10BD10B501217C
:10143000084600F0DFFC0021012000F0DBFC10BDBD
:101440002DE9F0410246002500260020002300245B
:10145000002791F803C00CF00F0591F803C00CF0C1
:10146000100CBCF1000F03D091F802C04CEA050546
:1014700091F800C0BCF1000F31D0146800202BE0BF
:101480004FF0010C0CFA00F3B1F800C00CEA0306AF
:101490009E4220D183004FF00F0C0CFA03F7BC439F
:1014A00005FA03FC4CEA040491F803C0BCF1280FD0
:1014B00006D14FF0010C0CFA00FCC2F814C00AE08F
:1014C00091F803C0BCF1480F05D14FF0010C0CFAA4
:1014D00000FCC2F810C0401C0828D1D31460B1F839
:1014E00000C0BCF1FF0F34DD546800202EE000F195
:1014F000080C4FF0010808FA0CF3B1F800C00CEA30
:1015000003069E4221D183004FF00F0C0CFA03F723
:10151000BC4305FA03FC4CEA040491F803C0BCF197
:10152000280F05D100F1080C08FA0CF8C2F8148055
:1015300091F803C0BCF1480F07D100F1080C4FF03F
:10154000010808FA0CF8C2F81080401C0828CED315
:101550005460BDE8F0814FF6FF7101800221817077
:101560000421C17070470246002093680B400BB104
:10157000012000E0002070470146886880B2704773
:1015800002460020D3680B400BB1012000E0002090
:1015900070470146C86880B2704701617047416179
:1015A00070470AB1016100E041617047C160704756
:1015B0004FF480320A43826181618261826982696B
:1015C000704702460020434B18684FF6807318405E
:1015D00040EA021008433F4B186070473E49C8611B
:1015E0007047F0B50A46002300240021002500F0D2
:1015F0000046B6F1004F02D1364EF16901E0354E9A
:101600007168C0F3034583B200F44016B6F5401F7D
:1016100008D121F070612F4E766826F070662D4F4C
:101620007E6012E000F48016B6F5801F06D1032616
:1016300006FA05F4A14341F0706106E0460D36015B
:1016400003FA06F6B14341F0706122B1460D36014E
:1016500003FA06F6314300F00046B6F1004F02D11E
:101660001C4EF16101E01B4E7160F0BD30B50022EF
:101670008B071C0F0F2303FA04F2164B08338C1050
:1016800053F824309343134C08348D1044F825301C
:1016900023468C1053F824308C07240F00FA04F4EE
:1016A00023430C4C08348D1044F8253030BD0A49D2
:1016B000DC3108607047000000080140000C014068
:1016C000001001400014014000180140001C0140BE
:1016D00000200140000001400000204210B50446F7
:1016E000FB48844209D10121880300F083FB0021DB
:1016F0004FF4804000F07EFB32E0F648844209D18E
:101700000121480400F083FB00214FF4003000F079
:101710007EFB25E0F048844209D10121880400F0D5
:1017200076FB00214FF4802000F071FB18E0EB48BD
:10173000844209D10121C80400F069FB00214FF463
:10174000002000F064FB0BE0E548844208D1012151
:10175000080500F05CFB00214FF4801000F057FBFF
:1017600010BD2DE9F04786B005460E460024A2467E
:1017700000BFA1460027B08900B100BF2F462C8AC8
:101780004CF6FF700440F08804432C82AC894EF67E
:10179000F3100440B0883189084371890843044339
:1017A000AC81AC8A4FF6FF400440B0890443AC8260
:1017B00001A800F098FAC648874202D1DDF810A0CF
:1017C00001E0DDF80CA0A88900F4004040B10AEB6C
:1017D000CA0000EB0A1031684900B0FBF1F807E0DD
:1017E0000AEBCA0000EB0A1031688900B0FBF1F87F
:1017F0006420B8FBF0F004012009642101FB10898A
:10180000A88900F4004040B1322000EBC900B0FBD1
:10181000F1F000F00700044308E0322000EB09106B
:101820006421B0FBF1F000F00F0004432C8106B0FE
:10183000BDE8F0874FF41651016000218180C1801E
:1018400001810C21418100218181704710B5024640
:101850000020108A4FF2FF0318400B884C88234366
:101860008C882343CC8823431843108210BD002169
:10187000018041808180C180704721B1828942F41A
:101880000052828104E082894DF6FF731A40828102
:101890007047F0B50346002400260025002040F6DE
:1018A0006A17B94200D100BF1846C1F3421401F0D3
:1018B0001F06012707FA06F5012C01D10C3004E0C0
:1018C000022C01D1103000E014301AB107682F4308
:1018D000076002E00768AF430760F0BD1AB1838A72
:1018E0000B43838202E0838A8B4383827047028AA0
:1018F0004FF6F0731A400282028A0A43028270474E
:1019000082894FF2FF731A40828182890A43828161
:10191000704721B1828942F00202828104E082890B
:101920004FF6FD731A4082817047028A4FF6DF73CB
:101930001A400282028A0A430282704721B1028A57
:1019400042F48042028204E0028A4BF6FF731A409E
:1019500002827047C1F3080282807047014688887E
:10196000C0F308007047818941F00101818170470F
:10197000028BD2B20283028B42EA012202837047B9
:10198000028B02F47F420283028B0A430283704778
:1019900021B1828A42F02002828204E0828A4FF6DC
:1019A000DF731A408282704721B1828A42F01002AE
:1019B000828204E0828A4FF6EF731A408282704777
:1019C00021B1828A42F00802828204E0828A4FF6C4
:1019D000F7731A408282704721B1828942F4004233
:1019E000828103E08289C2F30E028281704721B1B5
:1019F000828A42F40062828204E0828A4FF2FF739C
:101A00001A4082827047828A4FF6FB731A408282A4
:101A1000828A0A438282704721B1828A42F002029E
:101A2000828204E0828A4FF6FD731A4082827047F8
:101A300002460020B1F5007F00D100BF13880B40A3
:101A40000BB1012000E00020704701F40072B2F5F4
:101A5000007F00D100BFCA430280704770B50246C4
:101A6000002400230025002040F66A16B14200D170
:101A700000BFC1F3421501F01F03012606FA03F36C
:101A8000012D02D19689334006E0022D02D1168A3B
:101A9000334001E0968A33400C12012606FA04F422
:101AA0001688344013B10CB1012000E0002070BD55
:101AB00010B50022002340F66A14A14200D100BFF5
:101AC0000A1201249440A3B2DC43048010BD00003C
:101AD000003801400044004000480040004C0040F5
:101AE00000500040DF48006840F00100DD49086018
:101AF00008464068DC490840DA4948600846006802
:101B0000DA490840D74908600846006820F4802078
:101B100008600846406820F4FE0048604FF41F004B
:101B200088607047CF49096821F48031CD4A11603F
:101B30001146096821F480211160B0F5803F03D07F
:101B4000B0F5802F0ED106E0C649096841F4803116
:101B5000C44A116007E0C349096841F4A021C14AA1
:101B6000116000E000BF00BF704710B501460022C1
:101B7000002300204A11012A02D1BA4C236806E052
:101B8000022A02D1B74C236A01E0B64C636A01F025
:101B90001F02012494401C400CB1012000E00020F1
:101BA00010BD38B5002000900024002500BF312072
:101BB000FFF7DBFF05460098401C00900098B0F549
:101BC000A06F01D0002DF2D03120FFF7CEFF08B179
:101BD000012400E00024204638BD01460020A14A2F
:101BE000106820F0F80040EAC10010607047A0497A
:101BF00008607047024600209A4B586820F47C1019
:101C000042EA01031843974B5860704798490866A9
:101C1000704701460020934A506820F003000843B3
:101C2000506070478F48406800F00C0070470146D4
:101C300000208C4A506820F0F00008435060704744
:101C400001460020874A506820F4E0600843506055
:101C5000704701460020834A506820F4605040EAF3
:101C6000C1005060704729B17E4A527A02437D4BD1
:101C70005A7204E07B4A527A82437A4B5A72704716
:101C80007B49D8310860704701460020754A50688A
:101C900020F440400843506070470021714A2032D0
:101CA0001170704A82F82010012802D004280AD14D
:101CB00004E001216B4A2032117005E00521694AD8
:101CC0002032117000E000BF00BF70476949086012
:101CD00070476449096A0143624A11627047654965
:101CE00044390860704730B50021002200240023E9
:101CF0005C4D6D6805F00C0121B1042905D008295F
:101D000023D105E05C4D056022E05B4D05601FE0DE
:101D1000544D6D6805F47012524D6D6805F48034B1
:101D2000022505EB92421CB9544D554305600BE06A
:101D30004C4D6D6805F400351DB1504D554305609F
:101D400002E04D4D5543056002E04B4D056000BF7C
:101D500000BF444D6D6805F0F0010909484D6B5C0A
:101D60000568DD4045603F4D6D6805F4E061090A96
:101D7000434D6B5C4568DD4085603A4D6D6805F408
:101D80006051C90A3E4D6B5C4568DD40C560354D0C
:101D90006D6805F44041890B3A4D6B5CC568B5FB35
:101DA000F3F5056130BD29B12E4A526902432D4B2E
:101DB0005A6104E02B4A526982432A4B5A617047A8
:101DC00029B1284A92690243264B9A6104E0254AC8
:101DD00092698243234B9A61704729B1214AD269A3
:101DE0000243204BDA6104E01E4AD26982431D4B54
:101DF000DA61704729B11B4AD2680243194BDA6095
:101E000004E0184AD2688243164BDA60704729B161
:101E1000144A12690243134B1A6104E0114A126911
:101E20008243104B1A61704712494039086070476D
:101E30000F49C86470470B49C87170470948406A28
:101E400040F0807007494862704701460020054A0B
:101E500092680A400AB1012000E000207047014961
:101E600088727047001002400000FFF8FFFFF6FE86
:101E7000000042428004424200127A0000093D0004
:101E80004200002052000020002044490860091D43
:101E90000860091D0860091D086041483F49143168
:101EA0000860704700213D498279002A3AD00A46ED
:101EB000126803689A430B461A600A1D1268036889
:101EC0009A430B1D1A60027911440A6803681A4389
:101ED0000A60324A0832126803689A432F4B08336B
:101EE0001A601A1D126803689A432C4B0C331A604F
:101EF0004279102A0ED11A1F126803681A43274B21
:101F000008331A601A1D126803681A43234B0C33F6
:101F10001A600DE02149427911440A6803681A43A6
:101F20000A6005E0027911440A6803689A430A606E
:101F300070470021016001710C2141710021817104
:101F400070471649103109680143144A1032116074
:101F5000704701460020114A143212680A400AB143
:101F6000012000E0002070470C49143108607047E0
:101F7000014600200022094B1B6803EA0102074BBF
:101F800014331B680B4013B10AB1012000E000209C
:101F90007047024914310860704700000004014096
:101FA000FFFF0F007CB5002514E06946284601F0CC
:101FB000F9FF064666B9F74850F8254044B1012CB0
:101FC00006D0D4E9020100EB810060640198A064AE
:101FD000681CC5B23F2DE8D97CBD002400BF02E0DB
:101FE000282002F0E9F8EC4800780028F8D0EB4807
:101FF00000686421B0FBF1F0E84908600846006819
:1020000028B90020E6490870FF2002F00DF800BF53
:1020100002F002FA0446E3480068E3490860002041
:10202000E0490860204602F0FBF9DF480068DB4920
:102030000968B0FBF1F0C0F16400D949087002F002
:1020400098F9FFF7AFFF142002F0B6F8E0E700B50B
:1020500087B0032000218022D44BCDE90132CDE9A5
:1020600003104FF6FE703E23D14A0090AFF2950068
:1020700001F0B1FD06AACFA13E2001F015FF07B087
:1020800000BD002400BF00BF02F0C6F90446C548E9
:102090000068401CC3490860204602F0C1F902F004
:1020A00067F9F1E700B587B0032000218022C54B16
:1020B000CDE90132CDE903104FF6FF703F23C24A4C
:1020C0000090AFF2410001F086FD06AABFA13F20BB
:1020D00001F0EAFE07B000BD04E0002200F8012B89
:1020E0004A1E91B20029F8D1704770B5C821BB488B
:1020F000FFF7F2FF00230FE0581C85B203EB8300CB
:10210000B64901EB800405EB850001EB8006002059
:1021100020706660581C83B2092BEDD303EB83005B
:10212000AE4901EB80040020207060600846AC4995
:10213000086070BD70B54FF47C71AA48FFF7CCFF02
:102140004FF480719348FFF7C7FF002413E0601C31
:10215000C5B2C4EBC40000EB4000A24901EB800310
:10216000C5EBC50000EB400001EB80065E619EA060
:10217000D864601CC4B20B2CE9D3C4EBC40000EBE0
:102180004000984901EB80030020586196A0D86474
:1021900000209649086093489549086070BD002169
:1021A000944A1170002004E00021934A1154411C0C
:1021B000C8B20828F8D30021904A1170904A1170D3
:1021C000904A1160904A1160704700208F49086062
:1021D0008F4908708F4908708F4908708F490870BF
:1021E0008F4908606F4908606F4908606B49086053
:1021F00069490870704710B502F0B6F8FFF7E5FFBF
:10220000FFF7CDFFFFF796FFFFF76FFF00F0EAFE45
:1022100001F0C7FBFFF746FFFFF719FF02F0A5F833
:1022200010BD7E480078012808D179480078FF2841
:1022300004D277480078401C754908707047794986
:102240006C4A1278885C6C49095C764A515C01EBF7
:10225000C0016B4A1170704710B500246F480078B8
:10226000012830D102F0D8F804466948007820B13E
:1022700067480078401E6649087065480078F8B9DC
:1022800064480078E0B9FFF7DAFF42485C49097812
:1022900050F821005B49086059480078574909788F
:1022A00088420DD057480068806B401C554909682A
:1022B00088635B480068401C5949086002F0CBF80D
:1022C000204602F0ADF810BD10B500245348007848
:1022D000012811D102F0A0F804464D48007840B919
:1022E0004C480078FF2804D24A480078401C4949ED
:1022F0000870204602F094F810BD10B5002402F0DA
:102300008BF8044642480078F8B942480078E0B9B2
:10231000FFF795FF1F483A49097850F821003949DD
:102320000860374800783549097888420DD035482B
:102330000068806B401C334909688863384800682E
:10234000401C3749086002F07FF8204602F068F828
:1023500010BD10B500243148007801286FD102F07B
:102360005BF804462B48007880B12A480078401E6C
:10237000284908700846007848B92548007838B9D7
:10238000204602F04DF8FFF7B8FF58E054E04FE068
:102390004AE000008010002070000020680000204B
:1023A00064000020800000206C000020800C0020D1
:1023B0007C0E002075432F4F532D494920537461E3
:1023C00074000000800E00207C10002075432F4F09
:1023D000532D49492049646C65000000680B0020BA
:1023E0005C000020801100203F00000090000020D1
:1023F0008800002075000020760000207300002077
:10240000740000208C000020840000209C0000202C
:1024100071000020720000207F0000207E0000205C
:1024200058000020445F0008204601F0F9FF06E054
:10243000204601F0F5FF02E0204601F0F1FF10BD5B
:1024400010B5EB48007890B9FFF7F9FEE94800783D
:10245000E9490870E948E749097850F82100E84956
:10246000086008460068E749086001F0DCFF10BD1D
:1024700010B50024022001F09FFE01F0CDFF0446BC
:102480000020E1490860204601F0CAFF142001F055
:1024900093FE01F0C1FF0446DB480068DB49086099
:1024A0000120DB490870204601F0BAFF10BD70B56D
:1024B000002601F0AEFF01F0AFFF0646D5480068E8
:1024C000401CD4490860304601F0AAFFC848007893
:1024D000012853D1D048007820B1012804D0022827
:1024E00009D103E001250BE0002509E001250120C9
:1024F000C949087004E001250020C749087000BFE1
:1025000000BF05B970BDC548046833E001F084FF21
:102510000646E06A50B3E06A401EE062E06A28BB0B
:1025200094F8300000F0370040B114F8300F00F09C
:10253000C800207001206070303C02E0002084F868
:10254000310094F8300000F0080078B93434A078F5
:10255000B34909780843B24908702078B149085C4A
:102560006178084314F83419AE4A5054646930460F
:1025700001F056FF94F832003F28C7D100BFC1E7F1
:1025800040F223107047704710B590F8342001F1E5
:102590000B039B5C90F83540A34301F10B04A3545B
:1025A00023469B5C23B98B7A90F83640A3438B7209
:1025B00010BD2DE9F04F05460F4690469946A87A82
:1025C00099490E5C05F10B00805D11F800B00BEB32
:1025D000C60000F0FF0A894850F82A400020203445
:1025E000E0602760207C20EA0800207484F81190C5
:1025F000207C203C00F0080068B994F83600884937
:1026000009780843864908708648805D94F835103B
:1026100008438449885529462046FFF7B5FF5046B0
:10262000BDE8F08F10B5774A1268D061754A12681C
:1026300092F8343000F10B02D25C724B1B6893F8B5
:1026400035301A436F4B1B6893F8344000F10B038D
:102650001A55827A6B4B1B6893F836301A43827294
:10266000684A126892F834106E4A525C654B1B68D7
:1026700093F835309A436B4B5A541A46525C42B920
:10268000604A126892F83630654A12789A43644B71
:102690001A7010BD014600228A72002005E0002356
:1026A00001F10B021354421CD0B20828F7D3704733
:1026B00005E011F8013B00F8013B531E9AB2002AD5
:1026C000F7D170470146002002E0491C421CD0B2FD
:1026D0000A78002AF9D170472DE9F84F05460F46D0
:1026E00090469946DDE90AAB0020009001F094FE87
:1026F00000904E480468002C75D0183454F8040C2F
:102700004A490860009801F08BFE44F8187CA576D1
:10271000002020766076606144F814BC44F80CAC6C
:1027200044F8108C0C9824F8080C24F8069C00201F
:10273000E077E810207705F00700E076217F0120A0
:102740008840A077E17E01208840607700206060AB
:10275000E060A0602062A0626062E0622063AFF28D
:1027600078306063183C002606E0002104F1500038
:1027700040F82610701CC6B2002EF6D0204601F09C
:1027800047FE204601F0F2FD01F046FE00901B4896
:1027900040F825402148006860610020A0611F4882
:1027A000006810B11D48006884611C48046034341E
:1027B000A0781B49097808431949087020781949FD
:1027C000085C6178084314F83419164A50541848C4
:1027D0000078401C16490870009801F021FE002086
:1027E000BDE8F88FFFE7009801F01AFE4220F7E7F6
:1027F0007E00002074000020730000208010002064
:102800008C00002084000020800000206800002050
:10281000700000209C000020940000209000002008
:102820007500002076000020445F0008880000202A
:102830007F0000202DE9F05F04460F4691461E46BA
:102840004FF0000B2078052804D0012030700020C4
:10285000BDE8F09F09F0800ABAF1000F04D029F01A
:1028600080094FF0010801E04FF0000800203070AF
:1028700001F0D2FD8346B9F1000F2CD0B9F1010F60
:102880003BD0B9F1020F03D0B9F1030F46D111E0EB
:10289000208900EA0705BD4206D1B8F1010F05D134
:1028A0002089A843208101E070203070584601F053
:1028B000B7FD3AE0208900EA070535B1B8F1010F0C
:1028C00005D12089A843208101E07020307058464E
:1028D00001F0A6FD29E0208927EA0005BD4206D1C6
:1028E000B8F1010F05D120892843208101E0702033
:1028F0003070584601F094FD17E0208927EA000562
:1029000035B1B8F1010F05D120892843208101E0BC
:1029100070203070584601F083FD06E0584601F003
:102920007FFD00256F20307000BF00BF28468FE775
:102930002DE9F04106460D460027FA48007820B1FF
:10294000102028700020BDE8F08101F065FD0746E9
:10295000F548046884B100684068F34908600520C0
:102960002070268100206060F0A0E060384601F011
:1029700057FD0020287004E0384601F051FD722018
:1029800028702046DFE730B501464A6808682AB952
:10299000CC68606028B10025456002E0106000B19D
:1029A00042608B6800255D6230BDF0B506460F467B
:1029B000B4680020283460602780207A00F0DF00AF
:1029C000207200206072207A283C88B93434A078C4
:1029D000D74909780843D64908702078D549085C5A
:1029E0006178084314F83419D24A5054012500E0A4
:1029F00000253046FFF7C7FF2846F0BD2DE9F04718
:102A00000446894615464FF0000AC648007820B1B2
:102A10000F2028702046BDE8F0872078052803D0D5
:102A2000012028702046F6E701F0F6FC8246606837
:102A300008B1012700E00027B9F1000F03D0B9F178
:102A4000010F3CD119E08FB9B8A0E06000202070E0
:102A5000B5480068606000202081B348046050469B
:102A600001F0DEFC00202870002605E0504601F051
:102A7000D7FC49202870264628E0D4F8048005E0D9
:102A800000214046FFF791FFD8F80080B8F1000F11
:102A9000F6D1A6A0E06000202070A3480068606026
:102AA00000202081A0480460504601F0B9FC012FAD
:102AB00001D1FFF722FC00202870002606E05046D6
:102AC00001F0AEFC07202870264600BF00BF30464C
:102AD000A1E72DE9F04105460E461446002791482E
:102AE000007820B1112020700020BDE8F08101F0B5
:102AF00093FC07462878052806D0384601F090FC5C
:102B0000012020700020F0E7E86830603068FFF7AF
:102B1000D9FD8046384601F083FC002020704046F5
:102B2000E3E72DE9F04105460E46144600277D48AF
:102B3000007818B112202070BDE8F08101F06CFC23
:102B400007462878052805D0384601F069FC0120A1
:102B50002070F1E7EE60384601F062FC0020207042
:102B600000BFE9E7F0B51446059E734F3F6897F83C
:102B7000307047F02007DFF8C0C1DCF800C08CF8E7
:102B800030700027DFF8B0C1DCF800C08CF831707D
:102B9000694F3F68FE62684F3F6879620C828B74B0
:102BA000654F3F688F6047680F6000274F60C860BF
:102BB000456805B1696041605F4F3F6897F8342010
:102BC0005C4FBF5CDFF870C1DCF800C09CF835C01A
:102BD00027EA0C07DFF85CC10CF802706746BF5C9F
:102BE0005FB9554F3F6897F836C0514F3F7827EA95
:102BF0000C07DFF83CC18CF80070F0BD2DE9F04FF8
:102C000089B005460F4691469A46129E00200290D2
:102C10004448007828B102203070002009B0BDE897
:102C2000F08F4648007818B10D2030700020F5E78D
:102C30002878052803D0012030700020EEE709F045
:102C4000800BBBF1000F04D009F07F094FF00108A1
:102C500001E04FF0000801F0DFFB0290B9F1000F36
:102C60004AD0B9F1010F78D0B9F1020F03D0B9F110
:102C7000030F71D120E0288900EA0704BC420FD17C
:102C8000B8F1010F02D12889A04328812A480068A1
:102C90000485029801F0C4FB002030702046BDE797
:102CA0004B463A4604A92846CDF800A0FFF75AFF44
:102CB000029801F0B5FB78E0288900EA07047CB1AE
:102CC000B8F1010F02D12889A04328811A48006871
:102CD0000485029801F0A4FB0020307020469DE797
:102CE0004B463A4604A92846CDF800A0FFF73AFF24
:102CF000029801F095FB58E0288927EA0004BC42BD
:102D00001ED1B8F1010F02D12889204328810A4839
:102D100000680485029801F083FB00203070204693
:102D20007CE71AE071000020600000203F000000F6
:102D30007500002076000020840000207200002032
:102D40004B463A4604A92846CDF800A0FFF70AFFF3
:102D5000029801F065FB28E01FE0288927EA0004BB
:102D60007CB1B8F1010F02D1288920432881B148F4
:102D700000680485029801F053FB00203070204663
:102D80004CE74B463A4604A92846CDF800A0FFF789
:102D9000E9FE029801F044FB07E0029801F040FBD5
:102DA00000246F203070204638E700BFFFF7A5FAF7
:102DB00001F032FB02909F48006890F8310020B388
:102DC0009C48006890F831000390002099490968F8
:102DD00081F8310004A8FFF7D6FD00209549096865
:102DE00081F83000029801F01BFB002403980128B1
:102DF00005D0022802D10E20307003E000BF0A2067
:102E0000307000BF00BF204608E78A480068048D84
:102E1000B8F1010F1ED1B9F1000F0ED0B9F1010FB9
:102E20000CD0B9F1020F03D0B9F1030F0AD100E0C1
:102E300000BF2889A04328810BE000BF28892043D8
:102E4000288106E0029801F0EBFA6F203070002034
:102E5000E4E600BF029801F0E3FA0020307020465B
:102E6000DCE670B5002501F0D7FA05467148006828
:102E7000048D284601F0D4FA204670BD2DE9FC5F90
:102E80000446894692461E46002000902078052878
:102E900004D0012030700020BDE8FC9F01F0BCFA96
:102EA0000090BAF1000F03D0BAF1010F0AD104E08B
:102EB000208920EA090020810BE0208940EA0900EE
:102EC000208106E0009801F0ABFA712030700020FC
:102ED000E2E700BF4FF0000B656855E0A87C40B307
:102EE000012838D0022802D0032844D111E02089DB
:102EF000298A00EA0107288AB84209D139462846BA
:102F0000FFF753FD8046B8F1010F01D14FF0010BDF
:102F100038E02089298A00EA01074FB1394628465E
:102F2000FFF743FD8046B8F1010F01D14FF0010BCF
:102F300028E0288A218920EA0107288AB84209D195
:102F400039462846FFF731FD8046B8F1010F01D11F
:102F50004FF0010B16E0288A218920EA01074FB1C2
:102F600039462846FFF721FD8046B8F1010F01D10F
:102F70004FF0010B06E0009801F052FA6F2030701C
:102F8000002089E700BF2D68002DA7D1009801F02F
:102F900047FABBF1010F01D1FFF7AFF901F03CFA9D
:102FA000009020890190009801F03AFA00203070DA
:102FB000019871E72DE9F04104460D46002720787D
:102FC000052804D0012028700020BDE8F08101F020
:102FD00023FA07462689384601F022FA0020287095
:102FE0003046F2E72DE9F04150211348FFF774F81D
:102FF00000250EE0681C86B20F4800EB051400EBBC
:103000000617002020706760AFF2E020E060681CC7
:1030100085B2042DEED3084800EB05140020207083
:103020006060AFF2F820E060034804490860BDE842
:10303000F081000084000020300C0020600000209F
:1030400070B5044600262078012801D0002070BD0C
:1030500001F0E2F90646656800206060304601F044
:10306000DFF92846F3E770B505460026E348007807
:1030700008B1002070BD01F0CFF90646E0480468B1
:10308000006820B1DE4800684068DD4908603046CD
:1030900001F0C6F93CB1012020700020208165605C
:1030A0002046FFF7F7FA2046E4E72DE9F04704460B
:1030B000884615464FF000092078012804D00120E9
:1030C00028702046BDE8F087CC48007818B10F2062
:1030D00028702046F6E701F09FF98146A07A08B1F2
:1030E000012700E00027B8F1000F03D0B8F1010F6D
:1030F00035D117E07FB900202070C14800686060BA
:1031000000202081BE480460484601F089F9002073
:103110002870002605E0484601F082F94920287011
:10312000264623E005E00023022219462046FFF749
:1031300040FAA07A0028F6D12070B148006860609B
:1031400000202081AE480460484601F069F9012F53
:1031500001D1FFF7D2F800202870002606E048468B
:1031600001F05EF907202870264600BF00BF3046F8
:10317000A8E72DE9F04105460F4614464FF0000838
:103180002878012804D0012020700020BDE8F081BB
:103190009A48007818B1022020700020F6E799487C
:1031A000007818B10D2020700020EFE701F034F90D
:1031B00080466E6846B100206860404601F030F9F4
:1031C000002020703046E1E78F48006890F830001A
:1031D00040F002008C49096881F8300000208A49DB
:1031E000096881F8310088480068C7622846FFF7FF
:1031F00019FA404601F014F9FFF77FF801F00CF9D5
:1032000080468148006890F8310020B101280DD037
:1032100002280AD105E07C480068066A0020207078
:103220000DE000260E20207009E000BF29467648F8
:103230000068FFF7A9F900260A20207000BF00BF30
:1032400000207149096881F830006F49096881F8E8
:1032500031006D490968C8616B49096808624046D8
:1032600001F0DEF8304691E72DE9F04104460F46C3
:1032700015464FF000082078012804D0012028705E
:103280000020BDE8F08101F0C7F88046A07A20B3A5
:1032900000267FB1012F0CD107E002231A4600213E
:1032A0002046FFF786F9701CC6B2A07A0028F4D138
:1032B00009E000BF02231A4600212046FFF779F9F2
:1032C000701CC6B200BF00BF404601F0A9F8FFF76E
:1032D00014F80E2028703046D3E7404601F0A0F8DD
:1032E0000020287000BFCCE770B504460D460026CC
:1032F0002078012801D0012070BD01F08DF806462C
:10330000A07A60B10023022229462046FFF751F936
:10331000304601F085F8FEF7F0FF0020ECE760682A
:1033200020B1304601F07CF81420E5E765603046B6
:1033300001F076F80020DFE72DE9F04104460E4663
:10334000154600272078012802D00120BDE8F08131
:1033500001F062F80746A07AE8B105F0010050B12B
:1033600005E00023022231462046FFF722F9A07A29
:103370000028F6D105E00023022231462046FFF75F
:1033800018F9384601F04CF805F0040008B9FEF7CA
:10339000B4FF0020DAE7606820B1384601F040F859
:1033A0001420D3E76660384601F03AF80020CDE7F4
:1033B0002DE9F04704460D464FF00009207801281A
:1033C00002D00120BDE8F08701F026F88146A07AFE
:1033D000287304F10B0705F10408002605E017F82F
:1033E000010B08F8010B701CC6B2082EF7D36068F9
:1033F0002860484601F014F80020E3E7710000203F
:103400005C00002072000020840000202DE9F041C3
:1034100006460D464FF000083078022804D00120FF
:1034200028700020BDE8F08100F0F6FF8046746847
:10343000E08A78B12169081D20610F68E08A401E8A
:10344000E082A1682069884201D160682061002083
:10345000287002E01F2028700027404600F0E0FF9F
:103460003846DFE72DE9F04106460F464FF00008E9
:10347000F748007810B10020BDE8F08100F0CCFFE3
:103480008046F4480568006820B1F248006840684A
:10349000F0490860404600F0C3FF3DB300F0BCFFB8
:1034A0008046ED480468C4B100680068EA490860D5
:1034B000404600F0B5FF666006EB8700A060E6605E
:1034C0002661A7820020E082022028700020288147
:1034D0006C602846FFF7DEF808E0DE4800686860A8
:1034E000DC480560404600F09BFF00252846C3E706
:1034F0002DE9F0470446894615464FF0000A20782A
:10350000022804D0012028702046BDE8F087D0486A
:10351000007818B10F2028702046F6E700F07CFFF5
:103520008246A07A10B14FF0010801E04FF0000888
:10353000B9F1000F03D0B9F1010F45D11FE0B8F187
:10354000000F15D16668C44800683060C248066044
:1035500000202070BF480068606000202081BD48C6
:103560000460504600F05CFF00202870002705E052
:10357000504600F055FF4920287027462BE005E013
:103580000023042219462046FFF713F8A07A0028EA
:10359000F6D16668B04800683060AF480660002029
:1035A0002070AC480068606000202081A948046059
:1035B000504600F035FFB8F1010F01D1FEF79DFE36
:1035C00000202870002706E0504600F029FF072061
:1035D0002870274600BF00BF384696E770B50546FD
:1035E000002600F019FF06466C686068E0606068BD
:1035F00020610020E082304600F012FF002070BD04
:103600002DE9F0470746884615464FF000093878FF
:10361000022804D0012028700020BDE8F0878C48E3
:10362000007818B1022028700020F6E78B48007857
:1036300018B10D2028700020EFE700F0EDFE814664
:103640007C68E08A98B12169081D20610E68E08AD3
:10365000401EE082A1682069884201D16068206133
:10366000484600F0DDFE002028703046D5E77C4853
:10367000006890F8300040F004007949096881F84A
:10368000300000207649096881F8310074480068EC
:10369000C0F82C803846FEF7C5FF484600F0C0FE53
:1036A000FEF72BFE00F0B8FE81466D48006890F8EA
:1036B000310020B101280DD002280AD105E0684868
:1036C0000068066A002028700DE000260E20287091
:1036D00009E000BF394662480068FEF755FF002642
:1036E0000A20287000BF00BF00205D49096881F8EA
:1036F00030005B49096881F8310059490968C8619F
:10370000574909680862484600F08AFE304684E757
:103710002DE9F04104460F4615464FF00008207889
:10372000022804D0012028700020BDE8F08100F0BC
:1037300073FE8046A07A20B300267FB1012F0CD102
:1037400007E00223042200212046FEF732FF701C0E
:10375000C6B2A07A0028F4D109E000BF02230422F7
:1037600000212046FEF725FF701CC6B200BF00BF37
:10377000404600F055FEFEF7C0FD0E202870304692
:10378000D3E7404600F04CFE0020287000BFCCE795
:103790002DE9F04105460E4600272878022802D080
:1037A0000120BDE8F08100F037FE0746A87A60B13D
:1037B0000023042231462846FEF7FBFE384600F07F
:1037C0002FFEFEF79AFD0020EBE76C68E08AA18AE5
:1037D000884204DB384600F023FE1E20E1E7E16862
:1037E000081DE0600E60E08A401CE082D4E902100F
:1037F000884201D16068E060384600F011FE002088
:10380000CFE72DE9F04105460E460027287802282B
:1038100002D00120BDE8F08100F0FEFD0746A87A45
:1038200060B10023042231462846FEF7C2FE384626
:1038300000F0F6FDFEF761FD0020EBE76C68E08A22
:10384000A18A88420EDB384600F0EAFD1E20E1E73F
:10385000710000205C000020980000207200002011
:103860008400002061682069884201D1A06820613D
:103870002069001F206120690660E08A401CE08208
:10388000384600F0CDFD0020C4E72DE9F0410546A3
:103890000F4616464FF000082878022802D0012073
:1038A000BDE8F08100F0B8FD8046A87AE8B106F0E6
:1038B000010050B105E00023042239462846FEF7F6
:1038C00078FEA87A0028F6D105E0002304223946C4
:1038D0002846FEF76EFE404600F0A2FD06F004000A
:1038E00008B9FEF70AFD0020DAE76C68E08AA18AD1
:1038F000884204DB404600F093FD1E20D0E706F02E
:10390000020058B161682069884201D1A068206135
:103910002069001F20612069076009E0E168081D37
:10392000E0600F60D4E90210884201D16068E06075
:10393000E08A401CE082404600F072FD0020AFE7C4
:103940002DE9F04705460C464FF0000A287802287A
:1039500002D00120BDE8F08700F05EFD8246A87A23
:10396000207405F10B0804F10809002705E018F898
:10397000010B09F8010B781CC7B2082FF7D36E684A
:10398000F08A18B130690068206001E000202060F2
:10399000F08AA080B08AE080504600F041FD00200F
:1039A000D8E72DE9F04178211048FEF795FB002477
:1039B0000DE0601C86B204EB44000C4901EBC0052D
:1039C00006EB460001EBC0072F60601C84B2042C9C
:1039D000EFD304EB4400054901EBC005002028604B
:1039E000084603490860BDE8F0810000701500201A
:1039F000980000202DE9FF5F814688460020009056
:103A000000F00AFD0090F94850F8280030B1009805
:103A100000F006FD282004B0BDE8F09FB9F1FF0FCB
:103A200003D1F348006890F83290F04850F82940EC
:103A300024B9009800F0F4FC2920ECE7012C04D113
:103A4000009800F0EDFC4320E5E74FEAE80708F0B6
:103A5000070003900120B84000F0FF0A01210398FD
:103A6000814001F0FF0B0020E04941F829000846A1
:103A700040F8284014F8346FA07802906078343C05
:103A80000190DC48815D01980140D1B1D948805D49
:103A900001998843D74988550846805D28B9D6489A
:103AA000007802998843D4490870D348007840EAE6
:103AB0000A00D1490870CF48C05D40EA0B00CD49EB
:103AC000C855E569D5B105F10B00805D01998843C2
:103AD00005F10B0188550846805D18B9A87A02994E
:103AE0008843A872A87A40EA0A00A87205F10B0080
:103AF000C05D40EA0B0005F10B01C85584F8328027
:103B000084F83470039884F8330084F836A084F87D
:103B100035B0009800F084FCB8480078012801D145
:103B2000FEF7EBFB002076E72DE9FE4F06460F4639
:103B300090461C464FF0000900F06EFC8146B048EC
:103B4000007828B1484600F06BFC3C20BDE8FE8FB1
:103B5000A64850F8240060BB0120A44941F8240085
:103B6000484600F05DFC002342463946304600F0EE
:103B700001FC824600200090019003460246514617
:103B800002902046FEF7A8FD054635B99B4800780F
:103B900001280CD1FEF7B1FB09E000F03DFC8146A5
:103BA0000020924941F82400484600F039FC28469C
:103BB000CCE7484600F034FC2820C7E702F00103B8
:103BC00043B102F002032BB102E0491E002308C0FA
:103BD0000029FAD170472DE9F04F85B081468A4619
:103BE00093461C46DDE90F78129D0020039000F0FB
:103BF00013FC03908248007830B1039800F010FC69
:103C00003C2005B0BDE8F08F784850F8240088BB10
:103C10000120764941F82400039800F001FC2A466F
:103C200041463846FFF7CAFF2B465A46514648469A
:103C300000F0A0FB04901198CDE9008002953A466F
:103C400020460E9B0499FEF747FD064636B96B48A1
:103C5000007801280CD1FEF750FB09E000F0DCFBF6
:103C600003900020614941F82400039800F0D8FB3C
:103C70003046C6E7FFE7039800F0D2FB2820C0E7F4
:103C80002DE9F041054600275D48007810B140203D
:103C9000BDE8F0813F2D01D13E20F9E700F0BCFBEB
:103CA0000746FF2D03D15248006890F832504F4824
:103CB00050F8254024B9384600F0B2FB4320E7E72E
:103CC000012C04D1384600F0ABFB3D20E0E714F8AE
:103CD000340F4849085C617888432178454A50543C
:103CE00014F834091146085C30B994F8361042488B
:103CF0000078884340490870E06918B12046E169BE
:103D0000FEF742FC666A16B13046FEF73CFE002024
:103D1000E06284F8300084F831003A480078FF28E7
:103D200004D238480078401C36490870384600F004
:103D300077FBFEF728FC00F06FFB07463148007860
:103D400020B130480078401E2E490870204600F00F
:103D50000EFB2D480078401E2B4908700020234997
:103D600041F82500A06930B90020616988612749C0
:103D70006069086005E0D4E905014861D4E90510EF
:103D800088612348006860612148046021A0E064E4
:103D9000384600F045FB19480078012801D1FEF7AC
:103DA000ACFA002074E72DE9F041044600273F2CCF
:103DB00002D13E20BDE8F081FF2C0BD100F02CFB9E
:103DC00007460B48006890F83760384600F028FB3B
:103DD0003046EFE700F020FB0746044850F8245037
:103DE000D5B9384600F01CFB4320E3E780100020E3
:103DF0008400002076000020750000207E00002056
:103E000071000020720000207F0000209000002040
:103E1000880000203F000000012D04D1384600F04A
:103E2000FFFA3D20C6E73F2085F83700384600F00E
:103E3000F7FA0020BEE72DE9F04706460F46144684
:103E40004FF00008D648007820B1112020700020E3
:103E5000BDE8F08700F0E0FA8046FF2E03D1D1489C
:103E6000006890F83260D04850F8265035B9404686
:103E700000F0D6FA432020700020E9E7012D06D19A
:103E8000404600F0CDFA432020700020E0E7E86CC7
:103E900038603868FEF716FC8146404600F0C0FAEC
:103EA000002020704846D3E72DE9F04106460F4632
:103EB00014464FF00008BA48007818B1122020705C
:103EC000BDE8F08100F0A8FA8046FF2E03D1B54886
:103ED000006890F83260B44850F826502DB940463A
:103EE00000F09EFA43202070EAE7012D05D14046FC
:103EF00000F096FA43202070E2E7EF64404600F0BD
:103F00008FFA0020207000BFDAE770B50546002662
:103F100000F082FA0646A44850F8254024B93046FD
:103F200000F07EFA462070BD012C04D1304600F02E
:103F300077FA4320F7E794F8300000F0080060B308
:103F400014F8300F00F0F700207014F83009F8B9B9
:103F5000E06AC8B93434A078944909780843934991
:103F6000087020789249085C6178084314F8341985
:103F70008F4A5054304600F053FA8E48007801289A
:103F800009D1FEF7BAF906E0304600F049FA02E03E
:103F9000304600F045FA0020C5E7304600F040FA10
:103FA0004420C0E72DE9F04707460D464FF0000AD0
:103FB00000202860686000F02FFA8246FF2F03D1AE
:103FC0007848006890F83270774850F827402CB94C
:103FD000504600F025FA4320BDE8F087012C04D1BB
:103FE000504600F01DFA4320F6E7207C00F0010067
:103FF00020B9504600F014FA4520EDE70026D4F829
:104000000C90D4F80880504600F00AFA00E0761CC4
:1040100058F8041B0029FAD0B0002860A9EB06006C
:10402000800068600020D7E72DE9F04105464FF099
:10403000000800F0F1F98046FF2D05D159480068CD
:1040400090F83250012608E05648006890F8320097
:10405000A84201D1012600E00026534850F825402F
:104060002CB9404600F0DCF94820BDE8F081012C75
:1040700004D1404600F0D4F94320F6E794F83470B8
:104080004B48C05D94F8351088434949C8550846E7
:10409000C05D30B994F836104448007888434349ED
:1040A000087094F8300040F0080084F83000404672
:1040B00000F0B6F9012E01D1FEF71FF90020D4E778
:1040C0002DE9F04105460E46002700F0A5F9074608
:1040D000FF2D03D13348006890F83250324850F831
:1040E00025402CB9384600F09BF92920BDE8F08125
:1040F000012C04D1384600F093F94320F6E754220E
:1041000021463046FEF7D4FA384600F089F90020FF
:10411000ECE72DE9F04704460E4617464FF000093C
:1041200000F07AF98146FF2C02D11E48056802E0B2
:104130001D4850F8245005F1500050F8268048469C
:1041400000F06EF9002038704046BDE8F0872DE998
:10415000F04704460E46174698464FF0000900F017
:104160005BF98146FF2C02D10E48056802E00E483B
:1041700050F8245005F1500040F82670484600F0F1
:104180004FF9002088F80000BDE8F08710B5054819
:10419000006800F03FF9FF20FFF772FD10BD00003E
:1041A0007100002084000020801000207500002095
:1041B000760000207E00002070B50546002663488A
:1041C000007800B170BD6248007800B1FAE71DB315
:1041D00000F022F906465F48006890F834405E48D7
:1041E000005D5C49096891F8351088435A490855C3
:1041F0000846005D40B95748006890F836105748A7
:10420000007888435549087052480068C5623046B6
:1042100000F006F9FEF771F800BFD3E72DE9F04191
:1042200004460D4616461F464848007810B15520F2
:10423000BDE8F0814648007808B13220F8E7B81CA4
:10424000C82148434FF47A71B0FBF1F14FF461603B
:104250006043C5EB051200EB8200304400EBC00266
:1042600002EB001001EBC0084046FFF7A5FF00205D
:10427000DEE770B5054600263F2D01D32A2070BD2C
:1042800000F0CAF80646364850F8254024B93046B2
:1042900000F0C6F84320F2E7012C04D1304600F0CC
:1042A000BFF84320EBE7E06A20B9304600F0B8F8E9
:1042B0005020E4E70020E06294F8300000F037007E
:1042C00040B114F8300F20F03700207001206070EA
:1042D000303C02E0002084F8310094F8300000F017
:1042E0000800A8B93434A0781C49097808431B4950
:1042F000087020781849085C6178084314F834196C
:10430000154A5054304600F08BF8FDF7F6FF02E0F6
:10431000304600F085F80020B1E770B5002500F0C8
:104320007BF805460F480468284600F079F82046D7
:1043300070BD70B50446002500F06EF805460948CA
:104340000460284600F06CF870BD00007100002089
:1043500072000020840000207600002075000020FC
:10436000801000209C000020704770477047704705
:104370007047704770B5044610464FF08075056071
:10438000051F28462C606FF00106051F28462E6089
:104390004FF01236051F28462E604FF00336051FDA
:1043A00028462E604FF00236051F28462E607610F4
:1043B000051F28462E60051F284629604FF011363C
:1043C000051F28462E604FF01036051F28462E6028
:1043D0004FF00936051F28462E604FF00836051F9E
:1043E00028462E604FF00736051F28462E604FF0F6
:1043F0000636051F28462E604FF00536051F284655
:104400002E604FF00436051F28462E6070BD7047A1
:104410007047704770470000EFF3108072B6704726
:1044200080F310887047204C204D25604FF0000429
:1044300084F309881E4C4FF0010525701D4C4FF088
:104440008055256062B6FEE730B41A4C4FF08055B7
:10445000256030BC704730B4164C4FF08055256055
:1044600030BC704700BF72B6EFF3098028B1203826
:1044700080E8F00F10490968086000B50F488047D0
:104480005DF804EB0E480F490A7802700A480E499D
:104490000A680260106890E8F00F203080F3098805
:1044A0004EF0040E62B6704720ED00E00000FFFF02
:1044B0007E00002004ED00E0840000200F4400088E
:1044C00073000020740000208C0000207047000062
:1044D0000FB4044910B503AA029800F0E1FA10BC29
:1044E0005DF814FB3C0000202DE9F0474FF0000A76
:1044F00089460446C0F820A02046E1688847002885
:1045000076D0252806D0D4E901219047206A401CA6
:104510002062F1E7E168204600258847C4F81CA026
:1045200006460027C4F818A02A2E09D0304600F00D
:10453000EFFF38B304EB8708303EC8F8186019E085
:1045400059F8041B204604EB87029161E168884713
:10455000012F064618D1E069002820DA25F0200551
:104560001DE0D8F8180000EB800006EB4000303862
:10457000C8F818002046E1688847064600F0C8FFE2
:104580000028EED1012F0AD02E2E08D12046E16856
:1045900088477F1C0646022F45F02005C4DBA06932
:1045A000002803DA404245F00105A061E80701D088
:1045B00025F01005B6B1A6F14100192802D8203621
:1045C00045F400654A463146204625604D46FBF7D6
:1045D000E9FD58B1012806D0ED1D25F0070000F1D6
:1045E000080989E704E005F1040985E730468AE710
:1045F000206ABDE8F08700004FF0013C50F8042B22
:1046000051F8043B9A4221D1A2EB0C03934313EAE5
:10461000CC1317D150F8042B51F8043B9A4215D112
:10462000A2EB0C03934313EACC130BD150F8042BE9
:1046300051F8043B9A4209D1A2EB0C03934313EACD
:10464000CC13DBD04FF00000704700BFD01A01BA86
:10465000B1FA81F101F0180122FA01F0CB40C1F169
:104660002001DBB2C0B2C01A2CFA01F3D11A914377
:1046700011EAC311E6D17047704770477047704721
:1046800070472DE9FF4F0C461E464FF0FF378BB0A9
:10469000D2E90001DDF860800A908A46C1F30A552C
:1046A00005B93D46002108464FF00000BAF1000F61
:1046B00000F4400005DA00EB80004FF4400101EA0D
:1046C00050004FEA9059B9F1010F00DDB9460A9840
:1046D00050EA4A000ED044F61050A5F2FF3545438B
:1046E0002F14B8F1000F1ED07542291E1EDDC9F12E
:1046F00000021CE0B8F1010F4FF0000001D03021A2
:1047000003E0F24305E02154401CB042FBDB30469D
:104710000022002121540B99C1F80880C1E9002032
:104720000FB0BDE8F08FBD1B6D1CDEE74A4600DA16
:10473000694206A800F068FA06AB93E8070003ABED
:1047400083E8070050460A9900F006FB8DE8070051
:10475000A0F500501F3800900398002D0ADD42F2AA
:104760001F014A460844002303A90390684600F04D
:104770006FFD09E0A0F500504A461F38002303A949
:104780000390684600F079FD8DE807000004000CF6
:1047900003D04FF0FF30410800E01046B8F1000FA1
:1047A00003D00022009215461EE0751E05D400F0CD
:1047B0008DF9303262556D1EF9D5B346012208439A
:1047C00002D000227F1C04E02078302801D1002292
:1047D0007F1E002A099784D01DE0112D07DA00F012
:1047E00075F9303262556D1C50EA0102F5D108436B
:1047F00002D00098C8B10EE00021681E05E0235CDD
:10480000625C63542254401E491C8142F7DBAB4674
:10481000A81B401E0990002004F80B000B98099A71
:10482000C0F80880C0E9002B7AE711264FF0000895
:1048300057E72DE9F04F88460446D21D22F00701C4
:1048400091B0D1E90001CDE90A0100F04DFE024628
:104850000B98C00F01D02D2007E02068810701D5FB
:104860002B2002E0202101EAC000032A099001D098
:10487000072A05DB03464146204600F085F90BE197
:104880002078800601D5E06900E00620B8F1650FC8
:10489000814606D0B8F1660F18D0B8F1670F70D115
:1048A00031E00020B9F1110F009001DB112301E08C
:1048B00009F101030AAA01A90CA8FFF7E2FEDDE94C
:1048C0000C70002609F10105834647E001204B46A4
:1048D00000904FF000470AAA01A90CA8FFF7D1FEEB
:1048E000DDE90DB00C995D46002610B909F1010013
:1048F0000D18B9EB050003D4C0F1FF3609F101052D
:10490000A5EB09002BE0B9F1010F01DA4FF0010925
:104910000020B9F1110F0090484601DD112300E09D
:1049200003460AAA01A90CA8FFF7ABFEDDE90C704B
:104930004D4600268346207800070AD4AB4500DAAE
:104940005D4601A8012D04DD411911F8011C302933
:1049500007D04F4502DA17F1040F04DA012082462E
:104960000FE06D1EEEE7002F02DCED1B3E4403E07E
:10497000781CA84200DD7D1CB81B00F1010A4FF035
:1049800000472078000703D4AA4501DB4FF0FF3A27
:104990000021B7F1004F0DF143088DF8431024D0EA
:1049A00002202B23002F01DA7F422D230A21021E31
:1049B000A0F1010000DC5FB197FBF1FC97FBF1F285
:1049C00001FB1C7C17460CF1300C08F801CDEEE71A
:1049D000A8F1010003702188090501D5452100E0F7
:1049E0006521A0F1010800F8011C09980FA9A1EBAD
:1049F0000807FF1D00B10120411901EBEA70A16910
:104A00003844081A401EA0612078C00602D420460F
:104A1000AFF30080099828B1D4E901219047206ABA
:104A2000401C20622078C00622D52046AFF30080CB
:104A30001EE0002E04DBB34502DD01A8805D00E02E
:104A40003020D4E901219047206A401C2062761C66
:104A5000AAF101005FEA000A0AD100F033F8C06849
:104A60000168405CD4E901219047206A401C206223
:104A7000281EA5F10105DCDC07E0D4E9012118F8C6
:104A8000010B9047206A401C2062381EA7F10107E5
:104A9000F3DC2046AFF30080032011B041E60000B4
:104AA000074B70B50D467B4400F05BF80446284682
:104AB00000F01CF910B14FF0FF3070BD204670BD02
:104AC00071C6FFFF004870470816002030B5B0F1EE
:104AD0000A024FEA900E71F100034EEA817EB0EBBC
:104AE0000E0061EB91014FEA101E4EEA017E10EBC1
:104AF0000E0041EB11114FEA102E4EEA016E10EB41
:104B00000E0041EB11214FEA104E4EEA014E10EB20
:104B10000E0041EB1141401841F100014FEAD00075
:104B200040EA41704FEAD10110EB80054FEA810461
:104B300044EA907444EB01046D1944EB0404521BE5
:104B4000A3414FF0000348BF0A3200D530BD401CDE
:104B500041F1000130BD000001694A1C0261087882
:104B6000704700B58FB0CDE90131002105910549AD
:104B70007944CDE9031011466846FFF7B5FC0FB044
:104B800000BD0000E5FFFFFF2DE9F0411F46044690
:104B900003260168072A01F4006004DB08B116A5AA
:104BA00005E016A503E008B115A500E015A521F064
:104BB00010002060A069C01EA0610FB1401EA0615E
:104BC0002046AFF300804FB1D4E901213846904729
:104BD000206A401C2062C01C206206E0206AFAE7BE
:104BE000D4E9012115F8010B9047761EF8D2204632
:104BF000AFF30080BDE8F0814E414E006E616E0063
:104C0000494E4600696E66002DE9F047814616461A
:104C10008AB0354878440DC88DE80D003248784494
:104C2000801C03AC0DC884E80D0041F69B3008449D
:104C3000372190FBF1F290FBF1F5A5F1800501FB26
:104C400012041B3C02D56442012000E00020DFF882
:104C500098A080460027FA44AAF1BE0A0EE0E007B9
:104C60000AD03246684607EB470101230AEB81016F
:104C700000F003FB8DE8070064107F1C002CEED1D0
:104C8000194F7F44AE3F19E0E80715D007EB041039
:104C90000DF1180A90E80E008AE80E00C068F04294
:104CA00001D1981908903246012306A903A800F003
:104CB000E4FA03AB83E807006D10641C002DE3D118
:104CC0004FF0010332466946B8F1000F03A802D045
:104CD00000F0BEFA01E000F0D0FAC9E90001C9F81D
:104CE00008200AB0BDE8F087A8140000007B00F09F
:104CF0008000704700487047E81500207546FFF7B0
:104D0000F9FFAE4605006946534620F00700854688
:104D100018B020B5FCF7B4FABDE820404FF000060B
:104D20004FF000074FF000084FF0000B21F0070193
:104D3000AC46ACE8C009ACE8C009ACE8C009ACE8D6
:104D4000C0098D46704710B50446AFF30080204679
:104D5000BDE81040FBF740BA5FEA400C08BF91F095
:104D6000000F4FEA8C234FEAC12243EA51514FEA28
:104D70001C5018BF00F5F0404FEA300018BF41F05A
:104D800000415FEA6C5C00F02980BCF1FF3F08BF86
:104D900040F080407047130C06BF12044FF0100C17
:104DA0004FF0000C130E04BF12020CF1080C130F8D
:104DB00004BF12010CF1040C930F04BF92000CF11C
:104DC000020CD30F04BF52000CF1010C11464FF03E
:104DD0000002A0F11F00A0EB0C00704711F0004F83
:104DE00008BF704731F000413FF4D5AF0B0C06BF50
:104DF00009044FF0100C4FF0000C0B0E04BF090219
:104E00000CF1080C0B0F04BF09010CF1040C8B0F03
:104E100004BF89000CF1020CCB0F04BF49000CF158
:104E2000010CCCF12003A0EB0C0022FA03F302FAF0
:104E30000CF241EA030100F10100704720F07F4CC1
:104E400080EA030023F07F47ACEB070303F57C53B4
:104E500000F0004003F1FF032DE980494FEA154BB4
:104E600009B44FEA144325EA0B4E24EA03480FF233
:104E7000042606EB132749083E785FEA320203FB5B
:104E80000667C7F5000707FB06F64FEA54374FEAF7
:104E9000D64606F1020607FB066CCCF1005C4FEA31
:104EA0001C472CEA074C07FB06F40CFB06F504EB49
:104EB00015464FEA961634BF00204FF000404FEAE7
:104EC000D13706FB07FC4FEA1C4C0CFB0BF7D21B3F
:104ED00003FB0CF761EB07010CFB0EF7B0EB07408F
:104EE00072EB17420CFB08F734BFA2EB0742B2EBA0
:104EF000074261EB17414FEA0C444FEA910706FB6A
:104F000007FC4FEA1C4C0CFB0BF7B0EBC74072EBF5
:104F1000573203FB0CF734BFA2EBC742B2EBC742D8
:104F200061EB57310CFB0EF7B0EBC70072EB577219
:104F30000CFB08F734BFA2EBC702B2EBC70261EB70
:104F40005771039F4FEA816141EA921104EBCC044F
:104F50004FEAD1374FEA826206FB07FC42EA901221
:104F60004FEA80604FEA1C4C0CFB0BF7D21B03FB93
:104F70000CF761EB07010CFB0EF7B0EB074072EB8F
:104F800017420CFB08F734BFA2EB0742B2EB074213
:104F900061EB17414FEA8C554FEA910704EB9C24D3
:104FA00006FB07FC4FEA1C4C0CFB0BF7B0EBC740B1
:104FB00072EB573203FB0CF734BFA2EBC742B2EBE4
:104FC000C74261EB57310CFB0EF7B0EBC70072EB39
:104FD00057720CFB08F734BFA2EBC702B2EBC70253
:104FE00061EB577115EB4C254FEA816141EA921153
:104FF0004FEA82624FEAD13742EA901206FB07FC81
:1050000044F100044FEA80604FEA1C4C0CFB0BF7A4
:10501000D21B03FB0CF761EB07010CFB0EF7B0EBA7
:10502000074072EB17420CFB08F734BFA2EB0742B4
:10503000B2EB074261EB174115EB1C154FEA8131CA
:1050400041EA92414FEA823242EA90424FEA80308E
:105050004FEA0C7644F1000448EA03434EEA0B4859
:105060004FF0000EB2EB080C71EB030724BF624651
:1050700039464EEB0E0E4FF0000B001852414941DD
:105080004BEB0B0BB2EB080C71EB03077BF1000B46
:1050900024BF624639464EEB0E0E4FF0000B00184F
:1050A000524149414BEB0B0BB2EB080C71EB030780
:1050B0007BF1000B24BF624639464EEB0E0E51EADF
:1050C000020718BF46F0010616EB0E7655F10002F6
:1050D00054F1000103D5BDE88901BDE80088BDE8B1
:1050E0008901BDE80048B619524141EB0101A3F125
:1050F0000103704780807F7E7D7C7B7A797877762C
:1051000076757473727171706F6E6E6D6C6C6B6AA4
:105110006A69686867666665646463636261616042
:10512000605F5F5E5E5D5D5C5C5B5B5A5A595958BF
:105130005857575656555555545453535252525129
:10514000515050504F4F4F4E4E4D4D4D4C4C4C4B7F
:105150004B4B4A4A4A4949494848484747474746C6
:105160004646454545444444444343434342424202
:1051700042414141002B9C4630D477002BD01CB5D6
:105180004FEA370703B44FF010004FF01001BAF1A7
:10519000000F06D0BCF1000FDCBF40F0080040F06B
:1051A00008014FF000000FBCBDE810400BF1010BEF
:1051B000BBF1010F08BF5FEA170722BF12F101021E
:1051C00011F101014FF0004143F1000300F00040F4
:1051D00043EA00007047F9D35708D0E746EA06468D
:1051E00013F1400F4FEA16461FDD13F1200FDFBF0A
:1051F00016430A46002120335B42BED0C3F120078C
:1052000046EA064602FA07F74FEA164646EA070656
:10521000C3F1200722FA03F201FA07F721FA03F19A
:105220004FF0000342EA0702A7E746EA020646EA11
:1052300006464FEA164646EA0106BCBF46EA06465F
:10524000360C4FF000034FF000024FF0000194E7DE
:105250002DE9804C9A46934670B491E8380007C80F
:1052600031EA400C48BF34EA430C03D5FFF7E6FDB2
:10527000FFF780FFF0BCBDE8008C2DE9804C9A461A
:10528000934670B491E8380007C810F0804F08BF0B
:1052900013F0804F03D100F005F8FFF76BFFF0BC6F
:1052A000BDE8008C20F07F4780EA030023F07F4CAC
:1052B00007EB0C03A3F57C5300F00040A3F1FE03C1
:1052C00092F0000F00F0B38095F0000F00F07780AF
:1052D0002DE901494FEA11404FEA144621EA0048FE
:1052E00000FB06FC24EA064708FB06F607FB08F865
:1052F00000FB07F718EB06484CEB164C4FEA124B35
:1053000018EB07484FEA15464CEB174022EA0B4EC4
:105310000BFB06FC25EA06470EFB06F607FB0EFE16
:105320000BFB07F71EEB064E4CEB164C4FF000063E
:105330001EEB074E4CEB174B18EB0B0840F100002F
:1053400018EB0E0B58EB000840F100008F1A4FF0DD
:1053500000013CBFC943661B14BFB5EB040C002120
:105360003CBFC943F61B4FEA17444EEA8E0E27EAAC
:1053700004454FEA1C4704FB07622CEA074C05FB77
:1053800007F70CFB05F604FB0CFC16EB074642EB9B
:10539000174216EB0C4642EB1C421BEB060658EB81
:1053A0000202414146EA9E0601D5BDE80189B619CF
:1053B000524141EB0101A3F10103BDE801894FEA2C
:1053C00014454FEA114724EA054621EA074C05FB3C
:1053D00007F406FB07F70CFB06F105FB0CFC11EBD1
:1053E000074144EB17444FEA124711EB0C4144EBE1
:1053F0001C4422EA074C05FB07F206FB07F70CFBEF
:1054000006F605FB0CFC16EB074642EB174216EBC3
:105410000C4642EB1C456A1854F1000148BF704726
:10542000B619524141EB0101A3F10103704795F018
:10543000000F37D04FEA11424FEA144721EA0246E3
:1054400024EA074C02FB07F106FB07F70CFB06F406
:1054500002FB0CFC14EB074441EB17414FEA1547E4
:1054600014EB0C4441EB1C4125EA074C02FB07F509
:1054700006FB07F70CFB06F602FB0CFC16EB0746D7
:1054800045EB174516EB0C4645EB1C42121951F142
:10549000000148BF7047B619524141EB0101A3F129
:1054A000010370474FEA14454FEA114724EA0546C5
:1054B00021EA074C05FB07F106FB07F70CFB06F298
:1054C0004FF0000605FB0CFC12EB074241EB1741C5
:1054D00012EB0C4251EB1C4148BF7047921841EB54
:1054E0000101A3F101037047490050EAC12018BF30
:1054F00004204A0D18BF40F0010040F2FF72B2EBE9
:10550000515F08BF40F00200012808BF0520704726
:1055100030380A2801D2012070470020704700006F
:1055200010B500290AD00878002807D0054878442B
:10553000FFF762F8002801D0002010BD024878442F
:1055400010BD0000CA0B0000C20B000010B591EAAC
:10555000030F48BF83F0004300F11084841A71EBFD
:10556000030C05D2121943EB0C03001B61EB0C0179
:10557000DFF824E14FEA1154A4EB135C1EEA430F59
:1055800018BF9EEA445F73D023EA0E03DCF1200EBD
:1055900021EA045143F4801332D322FA0CFE10EBBB
:1055A0000E0023FA0CFE41EB0E01CCF1200E03FAA3
:1055B0000EFE10EB0E0051F10001B1F5801FCCF191
:1055C000200E32D201EB045112FA0EF2BDE8104067
:1055D00058BF7047401C38BF5FEA420218BF70478F
:1055E000002814BF20F0010041F100014FEA4103FF
:1055F00013F5001F38BF7047A1F1C04100F06EBB2A
:10560000012A43EB0302ACF1200CDCF11F0E32BF88
:105610004FF0000E23FA0CF310EB030041EB0451A2
:10562000B4EB115FD0D0A1EB045101F58011490812
:105630005FEA300001EB04510ED350F1000038BF97
:1056400012FA0EFE08D1BDE81040C9E7401C38BF71
:105650005FEA4202CAD1C3E7BDE810404FEA410306
:1056600013F5001F38BF7047A1F1C04100F036BBF1
:105670009EEA445F08D011EA5E0FBDE8104004BF07
:1056800001F0004100207047BDE8104070B500F007
:10569000D7FA00BF64FBBE3E0000E0FF491058BFD0
:1056A000C1F140415B1058BFC3F140438B42EFF35F
:1056B000008070472DE9C04130B4DFF8A0C23CEA59
:1056C000111418BF3CEA131400F0EC8081EA0305C2
:1056D0001CEA111444EAD57418BF1CEA131500F033
:1056E000C780A4EB05044FF0004545EAC12145EA17
:1056F000C32341EA505143EA525304F17F74994263
:1057000004F500344FEAC0204FEAC22208BF90429D
:1057100000F09C804FEA13650FF24016765D4FEA69
:10572000134506FB05F7C7F1807706FB07F74FEA3D
:10573000D737A7FB03687642C8F58038A7FB06CEAB
:1057400038BFA8F1010807FB08E64FF0000EA6FBE2
:10575000028CE6FB03CEDCF1000CCEF1004E38BF2C
:10576000AEF1010EA6FB0C584FF000074FF00005FC
:10577000E6FB0E87A1FB08C6A0FB07CE16EB0E06C4
:1057800045F10005E1FB076515F1E04E7EBFA4F58C
:1057900080345FEA46066D4116F1800745F1000549
:1057A0004FEA17274FEA066647EA0567A6F1DE4685
:1057B000B6F1805F4FEA15251FD9384624F0010C59
:1057C00005EBC471BCF1FE6F01EB0C1102D8F0BC0B
:1057D000BDE8008124425CBF01F5801E9EEAC47FC3
:1057E00002D4F0BCBDE80081244238D4F0BCA1F161
:1057F000C041BDE8004100F071BA4FEAD22242EA4E
:1058000043524FEAD323A7FB02864FEAD02040EA57
:10581000415007FB03661EEA0E0F4FEAD12105FB3C
:10582000026658BFA6EB0056B6EB00564FEA520E82
:105830004EEAC37E18EB0E0E56EB530EBDD518EB99
:1058400002085E417F1C55F10005B6E74FF4801554
:105850004FF000074FF000064FF00008ADE7F0BC36
:105860004FF0000001F1C04101F00041BDE80081AE
:1058700011EA0C1F0CEA131500D00CE013EA0C1F00
:1058800000F025804FF00000F0BC81EA030101F038
:105890000041BDE80081F0BCBDE8004181EA0301A0
:1058A00000F01CBAF0BCBDE8004170B500F0C8F9CA
:1058B000097EFC3E00F007B881EA03014FF00000CA
:1058C00001F00041704781EA030100F007BAF0BC23
:1058D000BDE800414FF0000021497047FFFDFBF992
:1058E000F7F5F4F2F0EEEDEBE9E8E6E4E3E1E0DE13
:1058F000DDDBDAD8D7D5D4D3D1D0CFCDCCCBCAC885
:10590000C7C6C5C4C2C1C0BFBEBDBCBBBAB9B8B7AB
:10591000B6B5B4B3B2B1B0AFAEADACABAAA9A8A89E
:10592000A7A6A5A4A3A3A2A1A09F9F9E9D9C9C9B6C
:105930009A99999897979695959493939291919017
:105940008F8F8E8E8D8C8C8B8B8A898988888787A8
:105950008685858484838382828181800000FF071D
:105960000000F87F4FEA41034FEA5353A3F58063E9
:10597000D3F11E03C8BFD3F1210C0CDD4FF0004260
:1059800042EAC12242EA505232FA03FC8CEAE17C3C
:10599000ACEBE1707047102BC4BF0020704703F5DB
:1059A000787CBCF1FF3F04D06FF0004282EA210016
:1059B000704770B500F044F9499224800020704788
:1059C000F2E700004FEA1153A3F58063D3F11E0301
:1059D000A8BFD3F1200C08DB4FF0004242EAC122FD
:1059E00052EA505232FA03F0704709420BD4102B9E
:1059F000C4BF0020704703F5787CBCF1FF3F05D0A1
:105A00004FF0FF3070474FF00000704770B500F066
:105A100017F900BF4992248000207047F0E710F08A
:105A2000004248BF4042B0FA80F310FA03F10AD0B6
:105A3000C3F11D0303F580634FEA415002EB0352AB
:105A400002EBD12170474FF000007047B0FA80F3AD
:105A500010FA03F10AD0C3F11D0303F580634FEA86
:105A600041504FEA035202EBD12170474FF0000042
:105A70007047000051EA030C17D41CF5801F58BF73
:105A8000BCF5801F00F10680994218BF704708BF1F
:105A90009042704707D711F5801F58BF13F5801F3C
:105AA00019D499427047894270471CF5801F08D568
:105AB000BCF5801FF7D58B4218BF704708BF8242E4
:105AC00070474FF4001C1CEB410F38BF1CEB430F19
:105AD00001D28B42704770B500F0B2F892244900B1
