:020000040800F2
:10000000882E00202D020008A3210008B31F00083D
:10001000392100088D140008D36F0008000000008B
:100020000000000000000000000000002B6B000832
:10003000811A0008000000001B1400083D6C000835
:10004000470200084702000847020008196B000831
:10005000470200084702000847020008470200085C
:10006000470200089D1A0008ED1A00084702000820
:10007000470200084702000847020008470200083C
:10008000470200084702000847020008470200082C
:10009000470200084702000847020008451B000805
:1000A000470200084702000847020008470200080C
:1000B00047020008470200084702000847020008FC
:1000C00047020008470200084702000847020008EC
:1000D00047020008BD6D00084702000847020008FB
:1000E00047020008470200084702000847020008CC
:1000F00047020008470200084702000847020008BC
:100100004702000847020008B96C000847020008CF
:10011000470200084702000847020008470200089B
:10012000470200084702000847020008470200088B
:1001300000F002F800F06AF80AA090E8000C82448F
:100140008344AAF10107DA4501D100F05FF8AFF26C
:10015000090EBAE80F0013F0010F18BFFB1A43F0A5
:100160000103184788830000A88300000A444FF069
:10017000000C10F8013B13F0070408BF10F8014B06
:100180001D1108BF10F8015B641E05D010F8016B4B
:10019000641E01F8016BF9D113F0080F1EBF10F8AF
:1001A000014BAD1C0C1B09D16D1E58BF01F801CBD2
:1001B000FAD505E014F8016B01F8016B6D1EF9D555
:1001C0009142D6D37047000000230024002500266A
:1001D000103A28BF78C1FBD8520728BF30C148BFAA
:1001E0000B607047662908F02D80642900F0668056
:1001F000002070471FB500F0A3FB04000020002181
:1002000007F056FBE0601FBD10B510BD00F0B4FC58
:100210001146FFF7EFFF07F0BDF900F0D2FC03B481
:10022000FFF7F2FF03BC06F048FF000009488047D3
:1002300009480047FEE7FEE7FEE7FEE7FEE7FEE7C8
:10024000FEE7FEE7FEE7FEE704480549054A064BE0
:1002500070470000596C0008310100088828002010
:10026000882E0020882A0020882A002072B6704735
:1002700062B67047EFF3108072B6704780F3108853
:10028000704730BF704720BF7047B0FA80F07047AA
:1002900090FAA0F0B0FA80F0704790FAA0F07047A2
:1002A000704700000FB4044910B503AA029800F08B
:1002B00035FB10BC5DF814FB540000202DE9F04123
:1002C0000646002410687529314616A510D0AFF3F4
:1002D0000080002802DA404213A507E031688A074F
:1002E00001D512A502E0490704D511A5012401E0BA
:1002F000AFF3008000210A2206F1240709E0B0FBD9
:10030000F2FCB0FBF2F302FB1C00303078541846CC
:10031000491C0028F3D123462A463046BDE8F04167
:1003200000F093B8000000002D0000002B0000003A
:10033000200000002DE9F0474FF0000A89460446EE
:10034000C0F820A02046E1688847002876D02528FC
:1003500006D0D4E901219047206A401C2062F1E7D1
:10036000E168204600258847C4F81CA006460027FF
:10037000C4F818A02A2E09D0304606F097FE38B3EC
:1003800004EB8708303EC8F8186019E059F8041BE0
:10039000204604EB87029161E1688847012F0646F9
:1003A00018D1E069002820DA25F020051DE0D8F8F2
:1003B000180000EB800006EB40003038C8F8180049
:1003C0002046E1688847064606F070FE0028EED118
:1003D000012F0AD02E2E08D12046E16888477F1CC5
:1003E0000646022F45F02005C4DBA069002803DA89
:1003F000404245F00105A061E80701D025F0100555
:10040000B6B1A6F14100192802D8203645F400659E
:100410004A463146204625604D46FFF7E3FE58B177
:10042000012806D0ED1D25F0070000F1080989E735
:1004300004E005F1040985E730468AE7206ABDE853
:10044000F08770477047704770472DE9F0470D46B9
:1004500099469246044600F124080168880604D5AE
:10046000E06921F01001216000E00120A84201DDD7
:10047000471B00E00027A1697A1902EB0900081A5E
:10048000A0612078C00602D42046AFF30080002689
:1004900008E0D4E901211AF806009047206A401CC0
:1004A000761C20624E45F4DB2078C0060AD5204633
:1004B000AFF3008006E0D4E9012130209047206AA4
:1004C000401C2062381EA7F10107F4DC07E0D4E9E4
:1004D000012118F805009047206A401C2062281E60
:1004E000A5F10105F3DC2046AFF30080207800067B
:1004F00002D50220BDE8F0870120FBE770472DE917
:10050000FF4F0C461E464FF0FF378BB0D2E900017B
:10051000DDF860800A908A46C1F30A5505B93D4668
:10052000002108464FF00000BAF1000F00F440002F
:1005300005DA00EB80004FF4400101EA50004FEA79
:100540009059B9F1010F00DDB9460A9850EA4A0006
:100550000ED044F61050A5F2FF3545432F14B8F1E4
:10056000000F1ED07542291E1EDDC9F100021CE0DD
:10057000B8F1010F4FF0000001D0302103E0F24349
:1005800005E02154401CB042FBDB30460022002134
:1005900021540B99C1F80880C1E900200FB0BDE8D3
:1005A000F08FBD1B6D1CDEE74A4600DA694206A8E3
:1005B00000F068FA06AB93E8070003AB83E8070096
:1005C00050460A9900F046FB8DE80700A0F5005060
:1005D0001F3800900398002D0ADD42F21F014A46A1
:1005E0000844002303A90390684600F0AFFD09E02A
:1005F000A0F500504A461F38002303A9039068461F
:1006000000F0B9FD8DE807000004000C03D04FF0A6
:10061000FF30410800E01046B8F1000F03D000227F
:10062000009215461EE0751E05D400F08DF930329B
:1006300062556D1EF9D5B3460122084302D000224F
:100640007F1C04E02078302801D100227F1E002A80
:10065000099784D01DE0112D07DA00F075F93032CA
:1006600062556D1C50EA0102F5D1084302D0009892
:10067000C8B10EE00021681E05E0235C625C635493
:100680002254401E491C8142F7DBAB46A81B401E8A
:100690000990002004F80B000B98099AC0F8088014
:1006A000C0E9002B7AE711264FF0000857E72DE943
:1006B000F04F88460446D21D22F0070191B0D1E9DF
:1006C0000001CDE90A0106F0DDFC02460B98C00FDF
:1006D00001D02D2007E02068810701D52B2002E002
:1006E000202101EAC000032A099001D0072A05DB76
:1006F00003464146204600F085F90BE1207880064C
:1007000001D5E06900E00620B8F1650F814606D00A
:10071000B8F1660F18D0B8F1670F70D131E0002042
:10072000B9F1110F009001DB112301E009F1010380
:100730000AAA01A90CA8FFF7E2FEDDE90C70002669
:1007400009F10105834647E001204B4600904FF038
:1007500000470AAA01A90CA8FFF7D1FEDDE90DB0F8
:100760000C995D46002610B909F101000D18B9EB8E
:10077000050003D4C0F1FF3609F10105A5EB09001E
:100780002BE0B9F1010F01DA4FF001090020B9F1B6
:10079000110F0090484601DD112300E003460AAA2C
:1007A00001A90CA8FFF7ABFEDDE90C704D46002651
:1007B0008346207800070AD4AB4500DA5D4601A8DD
:1007C000012D04DD411911F8011C302907D04F45D6
:1007D00002DA17F1040F04DA012082460FE06D1EE1
:1007E000EEE7002F02DCED1B3E4403E0781CA8423C
:1007F00000DD7D1CB81B00F1010A4FF00047207896
:10080000000703D4AA4501DB4FF0FF3A0021B7F1FE
:10081000004F0DF143088DF8431024D002202B2304
:10082000002F01DA7F422D230A21021EA0F10100D0
:1008300000DC5FB197FBF1FC97FBF1F201FB1C7C44
:1008400017460CF1300C08F801CDEEE7A8F10100D5
:1008500003702188090501D5452100E06521A0F13B
:10086000010800F8011C09980FA9A1EB0807FF1D5A
:1008700000B10120411901EBEA70A1693844081A5E
:10088000401EA0612078C00602D42046AFF300804D
:10089000099828B1D4E901219047206A401C2062C0
:1008A0002078C00622D52046AFF300801EE0002E3F
:1008B00004DBB34502DD01A8805D00E03020D4E90F
:1008C00001219047206A401C2062761CAAF1010099
:1008D0005FEA000A0AD100F033F8C0680168405CA2
:1008E000D4E901219047206A401C2062281EA5F10E
:1008F0000105DCDC07E0D4E9012118F8010B904781
:10090000206A401C2062381EA7F10107F3DC204654
:10091000AFF30080032011B041E60000074B70B533
:100920000D467B4400F05BF80446284600F01CF9B5
:1009300010B14FF0FF3070BD204670BD536A00000B
:10094000004870474428002030B5B0F10A024FEA51
:10095000900E71F100034EEA817EB0EB0E0061EB68
:1009600091014FEA101E4EEA017E10EB0E0041EBA2
:1009700011114FEA102E4EEA016E10EB0E0041EB02
:1009800011214FEA104E4EEA014E10EB0E0041EBE2
:100990001141401841F100014FEAD00040EA417096
:1009A0004FEAD10110EB80054FEA810444EA9074CC
:1009B00044EB01046D1944EB0404521BA3414FF0B6
:1009C000000348BF0A3200D530BD401C41F1000190
:1009D00030BD000001694A1C02610878704700B50B
:1009E0008FB0CDE901310021059105497944CDE968
:1009F000031011466846FFF79DFC0FB000BD0000D4
:100A0000E5FFFFFF2DE9F0411F460446032601687C
:100A1000072A01F4006004DB08B116A505E016A55D
:100A200003E008B115A500E015A521F01000206035
:100A3000A069C01EA0610FB1401EA0612046AFF3A7
:100A400000804FB1D4E9012138469047206A401C0C
:100A50002062C01C206206E0206AFAE7D4E9012186
:100A600015F8010B9047761EF8D22046AFF30080B0
:100A7000BDE8F0814E414E006E616E00494E460069
:100A8000696E66002DE9F047814616468AB0354802
:100A900078440DC88DE80D0032487844801C03ACC2
:100AA0000DC884E80D0041F69B300844372190FBC7
:100AB000F1F290FBF1F5A5F1800501FB12041B3C5E
:100AC00002D56442012000E00020DFF898A08046B3
:100AD0000027FA44AAF1BE0A0EE0E0070AD0324627
:100AE000684607EB470101230AEB810100F043FB55
:100AF0008DE8070064107F1C002CEED1194F7F4455
:100B0000AE3F19E0E80715D007EB04100DF1180A05
:100B100090E80E008AE80E00C068F04201D19819F2
:100B200008903246012306A903A800F024FB03AB7A
:100B300083E807006D10641C002DE3D14FF0010322
:100B400032466946B8F1000F03A802D000F0FEFA61
:100B500001E000F010FBC9E90001C9F808200AB063
:100B6000BDE8F087407A0000007B00F0800070470D
:100B700000487047242800207546FFF7F9FFAE466D
:100B800005006946534620F00700854618B020B599
:100B9000FFF75AFBBDE820404FF000064FF000077A
:100BA0004FF000084FF0000B21F00701AC46ACE815
:100BB000C009ACE8C009ACE8C009ACE8C0098D4682
:100BC000704710B50446AFF300802046BDE81040E2
:100BD000FFF725BB4FF0013C50F8042B51F8043BC4
:100BE0009A4221D1A2EB0C03934313EACC1317D101
:100BF00050F8042B51F8043B9A4215D1A2EB0C0398
:100C0000934313EACC130BD150F8042B51F8043B57
:100C10009A4209D1A2EB0C03934313EACC13DBD025
:100C20004FF00000704700BFD01A01BAB1FA81F14D
:100C300001F0180122FA01F0CB40C1F12001DBB232
:100C4000C0B2C01A2CFA01F3D11A914311EAC311B0
:100C5000E6D170475FEA400C08BF91F0000F4FEA01
:100C60008C234FEAC12243EA51514FEA1C5018BF6E
:100C700000F5F0404FEA300018BF41F000415FEA54
:100C80006C5C00F02980BCF1FF3F08BF40F0804061
:100C90007047130C06BF12044FF0100C4FF0000CFD
:100CA000130E04BF12020CF1080C130F04BF120143
:100CB0000CF1040C930F04BF92000CF1020CD30F43
:100CC00004BF52000CF1010C11464FF00002A0F1DC
:100CD0001F00A0EB0C00704711F0004F08BF7047D9
:100CE00031F000413FF4D5AF0B0C06BF09044FF0C3
:100CF000100C4FF0000C0B0E04BF09020CF1080C95
:100D00000B0F04BF09010CF1040C8B0F04BF890009
:100D10000CF1020CCB0F04BF49000CF1010CCCF11B
:100D20002003A0EB0C0022FA03F302FA0CF241EAD2
:100D3000030100F10100704720F07F4C80EA0300BE
:100D400023F07F47ACEB070303F57C5300F0004032
:100D500003F1FF032DE980494FEA154B09B44FEA2F
:100D6000144325EA0B4E24EA03480FF2042606EB4F
:100D7000132749083E785FEA320203FB0667C7F58E
:100D8000000707FB06F64FEA54374FEAD64606F14E
:100D9000020607FB066CCCF1005C4FEA1C472CEA0C
:100DA000074C07FB06F40CFB06F504EB15464FEA6F
:100DB000961634BF00204FF000404FEAD13706FBB3
:100DC00007FC4FEA1C4C0CFB0BF7D21B03FB0CF788
:100DD00061EB07010CFB0EF7B0EB074072EB17421B
:100DE0000CFB08F734BFA2EB0742B2EB074261EB02
:100DF00017414FEA0C444FEA910706FB07FC4FEA04
:100E00001C4C0CFB0BF7B0EBC74072EB573203FBEB
:100E10000CF734BFA2EBC742B2EBC74261EB5731CC
:100E20000CFB0EF7B0EBC70072EB57720CFB08F728
:100E300034BFA2EBC702B2EBC70261EB5771039F4D
:100E40004FEA816141EA921104EBCC044FEAD137B9
:100E50004FEA826206FB07FC42EA90124FEA80608A
:100E60004FEA1C4C0CFB0BF7D21B03FB0CF761EB9E
:100E700007010CFB0EF7B0EB074072EB17420CFBBF
:100E800008F734BFA2EB0742B2EB074261EB174110
:100E90004FEA8C554FEA910704EB9C2406FB07FCB4
:100EA0004FEA1C4C0CFB0BF7B0EBC74072EB573210
:100EB00003FB0CF734BFA2EBC742B2EBC74261EBB6
:100EC00057310CFB0EF7B0EBC70072EB57720CFBFF
:100ED00008F734BFA2EBC702B2EBC70261EB577150
:100EE00015EB4C254FEA816141EA92114FEA82628B
:100EF0004FEAD13742EA901206FB07FC44F10004A6
:100F00004FEA80604FEA1C4C0CFB0BF7D21B03FB33
:100F10000CF761EB07010CFB0EF7B0EB074072EB2F
:100F200017420CFB08F734BFA2EB0742B2EB0742B3
:100F300061EB174115EB1C154FEA813141EA9241F3
:100F40004FEA823242EA90424FEA80304FEA0C7612
:100F500044F1000448EA03434EEA0B484FF0000E08
:100F6000B2EB080C71EB030724BF624639464EEB27
:100F70000E0E4FF0000B0018524149414BEB0B0B8A
:100F8000B2EB080C71EB03077BF1000B24BF624648
:100F900039464EEB0E0E4FF0000B001852414941FE
:100FA0004BEB0B0BB2EB080C71EB03077BF1000B67
:100FB00024BF624639464EEB0E0E51EA020718BFB7
:100FC00046F0010616EB0E7655F1000254F10001D1
:100FD00003D5BDE88901BDE80088BDE88901BDE809
:100FE0000048B619524141EB0101A3F101037047DA
:100FF00080807F7E7D7C7B7A797877767675747356
:10100000727171706F6E6E6D6C6C6B6A6A69686814
:10101000676666656464636362616160605F5F5EAA
:101020005E5D5D5C5C5B5B5A5A5959585857575620
:101030005655555554545353525252515150505085
:101040004F4F4F4E4E4D4D4D4C4C4C4B4B4B4A4AD7
:101050004A4949494848484747474746464645451B
:101060004544444444434343434242424241414154
:10107000002B9C4630D477002BD01CB54FEA3707A5
:1010800003B44FF010004FF01001BAF1000F06D07A
:10109000BCF1000FDCBF40F0080040F008014FF049
:1010A00000000FBCBDE810400BF1010BBBF1010FBC
:1010B00008BF5FEA170722BF12F1010211F1010117
:1010C0004FF0004143F1000300F0004043EA00000C
:1010D0007047F9D35708D0E746EA064613F1400FA8
:1010E0004FEA16461FDD13F1200FDFBF16430A46F5
:1010F000002120335B42BED0C3F1200746EA0646FA
:1011000002FA07F74FEA164646EA0706C3F1200738
:1011100022FA03F201FA07F721FA03F14FF0000374
:1011200042EA0702A7E746EA020646EA06464FEA0F
:10113000164646EA0106BCBF46EA0646360C4FF0A4
:1011400000034FF000024FF0000194E72DE9804CBE
:101150009A46934670B491E8380007C831EA400CCB
:1011600048BF34EA430C03D5FFF7E6FDFFF780FFE5
:10117000F0BCBDE8008C2DE9804C9A46934670B4D3
:1011800091E8380007C810F0804F08BF13F0804F77
:1011900003D100F005F8FFF76BFFF0BCBDE8008C51
:1011A00020F07F4780EA030023F07F4C07EB0C031D
:1011B000A3F57C5300F00040A3F1FE0392F0000F72
:1011C00000F0B38095F0000F00F077802DE9014921
:1011D0004FEA11404FEA144621EA004800FB06FCA2
:1011E00024EA064708FB06F607FB08F800FB07F7AA
:1011F00018EB06484CEB164C4FEA124B18EB07481D
:101200004FEA15464CEB174022EA0B4E0BFB06FC4F
:1012100025EA06470EFB06F607FB0EFE0BFB07F75B
:101220001EEB064E4CEB164C4FF000061EEB074E25
:101230004CEB174B18EB0B0840F1000018EB0E0BB2
:1012400058EB000840F100008F1A4FF000013CBF3E
:10125000C943661B14BFB5EB040C00213CBFC94356
:10126000F61B4FEA17444EEA8E0E27EA04454FEA72
:101270001C4704FB07622CEA074C05FB07F70CFB35
:1012800005F604FB0CFC16EB074642EB174216EB87
:101290000C4642EB1C421BEB060658EB0202414196
:1012A00046EA9E0601D5BDE80189B619524141EBD7
:1012B0000101A3F10103BDE801894FEA14454FEA9A
:1012C000114724EA054621EA074C05FB07F406FB13
:1012D00007F70CFB06F105FB0CFC11EB074144EB97
:1012E00017444FEA124711EB0C4144EB1C4422EA2D
:1012F000074C05FB07F206FB07F70CFB06F605FBA0
:101300000CFC16EB074642EB174216EB0C4642EB81
:101310001C456A1854F1000148BF7047B619524184
:1013200041EB0101A3F10103704795F0000F37D0A5
:101330004FEA11424FEA144721EA024624EA074CD9
:1013400002FB07F106FB07F70CFB06F402FB0CFCA3
:1013500014EB074441EB17414FEA154714EB0C44DB
:1013600041EB1C4125EA074C02FB07F506FB07F79A
:101370000CFB06F602FB0CFC16EB074645EB17458B
:1013800016EB0C4645EB1C42121951F1000148BF07
:101390007047B619524141EB0101A3F101037047B7
:1013A0004FEA14454FEA114724EA054621EA074C63
:1013B00005FB07F106FB07F70CFB06F24FF00006F2
:1013C00005FB0CFC12EB074241EB174112EB0C4200
:1013D00051EB1C4148BF7047921841EB0101A3F14A
:1013E000010370471D484FF6FF710170002080F324
:1013F00009881B48016881F308881A484FF080511A
:10140000016062B6FEE717484FF0805101607047F7
:1014100014484FF080510160704772B6EFF30980B5
:1014200028B1203880E8F00F0F490968086000B53E
:101430000E4880475DF804EB0D480E490A780270AB
:1014400009480D490A680260106890E8F00F2030E2
:1014500080F309884EF0040E62B6704722ED00E07A
:101460002C01002004ED00E0240100203D3700089D
:10147000B2000020B30000202801002000B585B094
:10148000684605F0C5FA019805B000BD00BFFEE74B
:1014900010B500F01FF800F019F810BD10B50024C9
:1014A00000BF00BFFEF7E6FE044600BF00BF1021EC
:1014B000054800F043FE00BF00BF2046FEF7DEFEF9
:1014C00000BF00BF10BD0000A40C002010B5FFF746
:1014D000E5FF10BD10B500200249086000F00AF8D1
:1014E00010BD00005800002001490860704700004E
:1014F0005800002010B5FFF7C1FF044608480068F7
:1015000040F080700649086000200649486008469F
:10151000006840F0010008602046FFF7E5FF10BDBD
:10152000FCED00E0001000E0014948687047000051
:10153000001000E01FB517E003A9002202ABCDE9BF
:1015400000211146094801F0C7F806C8104600F00E
:1015500073FD03A900224FF4FA73CDE900210122A3
:101560000021084602F0BAF9E6E700003001002049
:1015700010B50DA20021084605F0EEFF0BA20021D8
:10158000042005F0E9FF0AA20021062005F0E4FF8F
:1015900008A20121002005F0DFFF07A2012105209C
:1015A00005F0DAFF10BD0000543D00002E000000E1
:1015B00043000000483D0000250000000EB580E01B
:1015C000404800680A2190FBF1F03030C4B2224656
:1015D0000021082005F06EFF3A4800680A2190FBC0
:1015E000F1F201FB12003030C4B222460021092082
:1015F00005F060FF34480068642190FBF1F0303062
:10160000C4B2224600210B2005F054FF2E4800688A
:101610000A2190FBF1F090FBF1F201FB1200303057
:10162000C4B2224600210C2005F044FF2648006881
:101630000A2190FBF1F201FB12003030C4B22246C5
:1016400000210D2005F036FF204800680A2190FB9C
:10165000F1F03030C4B222460121082005F02AFF03
:101660001A4800680A2190FBF1F201FB12003030A9
:10167000C4B222460121092005F01CFF144800686D
:101680000A2190FBF1F03030C4B2224601210B2038
:1016900005F010FF0E4800680A2190FBF1F201FBF3
:1016A00012003030C4B2224601210C2005F002FFA6
:1016B00002A800210B460122CDE90010084602F0E5
:1016C0000DF97DE7300000202C00002038000020BC
:1016D0003400002010B500241548006820F4704044
:1016E000134908600846006840F40040086004E0C0
:1016F000601CC4B2012000F0C4F90E48006808B1B3
:10170000C82CF5DBC82C01DB012010BD002404E04F
:10171000601CC4B2012000F0B4F90648006808B9A2
:10172000F02CF5DBF02C01DB0120EEE70020ECE7EC
:10173000040801402C0121422DE9F84F00F0CCF8BB
:1017400000F0A8F8FFF7C6FFCC2000F0D1F8BE20CB
:1017500000F0CEF800F08CF8834600F089F80446DB
:10176000072C08DDE043C4B26FEA0B0000F0FF0B6A
:101770004FF0000A01E04FF0010AA1464FEA0920AC
:101780000FFA80F909EB0B000FFA80F9484606F0D2
:10179000FBFC009006F0CCFC07460022084B06F04C
:1017A000DFFA054606F09AFA0FFA80F9BAF1000F4F
:1017B00002D04846BDE8F88FC9F1000000B2F9E751
:1017C0000000E43F08B50121042005F011F94FF4B1
:1017D0000060ADF8000010208DF8030003208DF8A4
:1017E00002006946064800F003FB4FF4006104481C
:1017F00000F0DDFB00F04EF8FFF76CFF08BD0000C5
:101800000008014010B51748006820F470401549E1
:1018100008600846006840F4405008600020124903
:101820000860012000F02DF901201049C1F8AC0139
:101830000C48006820F470400A49086008460068B7
:1018400040F400400860062000F01BF9064880388C
:10185000006808B1012400E00024192000F011F90B
:10186000204610BD04080140AC0121420000214285
:1018700070B50026012508E0FFF7C4FF0446E0012B
:1018800040EA6600C6B2681CC5B2082DF4DD3046D9
:1018900070BD000000B50D48006820F470400B4991
:1018A00008600846006840F440500860002008497D
:1018B000086040F2771000F0E4F801200549C1F813
:1018C000AC01082000F0DDF800BD00000408014074
:1018D000AC0121420000214200B5FFF7DBFFFFF71A
:1018E000F9FECC2000F004F8442000F001F800BD1F
:1018F00070B504461748006820F470401549086028
:101900000846006840F44050086001251FE004F0DC
:10191000010664106EB100200F490860012000F03C
:10192000B0F801200D49C1F8AC011E2000F0A9F863
:101930000BE00020084908601E2000F0A2F80120FA
:101940000649C1F8AC0100F09CF8681CC5B2082D2E
:10195000DDDD70BD04080140AC01214200002142E0
:1019600086B00020039000BF6CE002A801F068F888
:10197000039818B9FFF726FF01200390FFF7DCFE5C
:101980000590314805F09CFCB8B92F49487806F01D
:10199000D4F9804600222D4B06F048F804460D4647
:1019A0002949087806F0C9F9064622462B4605F073
:1019B00095FF824606F092F904900A21059890FB63
:1019C000F1F023490968884207DC0A21059890FB59
:1019D000F1F020490968884207DA1F48006808B911
:1019E000012000E000201C4908601C490498096897
:1019F000884204DC1A4904980968884209DA1648C2
:101A0000001F006808B9012000E000201249091FEA
:101A10000860049A114613A0FEF744FC02A801F0E6
:101A20007BF802A80023012204A90090134800F0CB
:101A300057FF02A800210B460122CDE900100846FD
:101A400001F04CFF91E700001E0000200000244040
:101A50002C00002030000020A4812142340000200E
:101A60003800002068756D203D20252E32662C74CC
:101A7000656D70203D2025640D0A000030010020B6
:101A80007047002107E0002201E0531C9AB20A2AA5
:101A9000FBDB4A1C91B28142F5DB704710B500F0C8
:101AA0002DFD0A2005F044FB08210B4800F074FAD4
:101AB00058B90A20094908607820094908600A20B5
:101AC000084908605A2008490860082000F020F9F9
:101AD00000F02AFD10BD0000000C01403000002085
:101AE0002C000020380000203400002010B500F049
:101AF00005FD0A2005F01CFB10210F4800F04CFAF0
:101B000098B90E480068401E0D490968884205DDF5
:101B10000B480068401C0A49086006E00848006855
:101B2000502802D10A2006490860102000F0F0F881
:101B300000F0FAFC10BD0000000C01403400002051
:101B40003800002010B500F0D9FC0A2005F0F0FAAA
:101B50002021244800F020FA78B92348006878282A
:101B600005DA21480068401C1F49086002E00B208C
:101B70001D490860202000F0CBF84021194800F0F2
:101B80000BFAB0B918480068401E18490968884225
:101B900005DD16480068401C1449086006E013483B
:101BA0000068632802D10A2010490860402000F034
:101BB000AFF880210B4800F0EFF978B90C480068C5
:101BC0005A2805DA0A480068401C0949086002E002
:101BD0000B2007490860802000F09AF800F0A4FC70
:101BE00010BD0000000C01402C000020300000203F
:101BF000340000200EB50121084604F0F9FE00F083
:101C0000DBF90521012000F0D3F82020019000200D
:101C10008DF808000C208DF8090001208DF80A00CD
:101C200001A800F07BF80621012000F0C1F8402057
:101C3000019000208DF808000C208DF8090001208B
:101C40008DF80A0001A800F069F80721012000F0D2
:101C5000AFF88020019000208DF808000C208DF84E
:101C6000090001208DF80A0001A800F057F80321AF
:101C7000012000F09DF80820019000208DF8080058
:101C80000C208DF8090001208DF80A0001A800F051
:101C900045F80421012000F08BF81020019000206D
:101CA0008DF808000C208DF8090001208DF80A003D
:101CB00001A800F033F817208DF8000002208DF8FD
:101CC000010001208DF802008DF80300684600F045
:101CD00069FA09208DF8000002208DF801008DF8C6
:101CE000020001208DF80300684600F05BFA0A202C
:101CF0008DF8000002208DF8010000208DF8020010
:101D000001208DF80300684600F04CFA0EBD00007B
:101D10000149086070470000140401400021234974
:101D20008279002A3AD00A46126803689A430B4621
:101D30001A600A1D126803689A430B1D1A60027923
:101D400011440A6803681A430A60184A0832126884
:101D500003689A43154B08331A601A1D126803680A
:101D60009A43124B0C331A604279102A0ED11A1F73
:101D7000126803681A430D4B08331A601A1D126863
:101D800003681A43094B0C331A600DE00749427986
:101D900011440A6803681A430A6005E00279114495
:101DA0000A6803689A430A60704700000004014013
:101DB00030B500228B071C0F0F2303FA04F20B4BE4
:101DC0008C1053F824309343084C8D1044F8253080
:101DD00023468C1053F824308C07240F00FA04F4A7
:101DE0002343024C8D1044F8253030BD08000140DB
:101DF0002DE9F041024600250026002000230024A2
:101E0000002791F803C00CF00F0591F803C00CF007
:101E1000100CBCF1000F03D091F802C04CEA05058C
:101E200091F800C0BCF1000F31D0146800202BE005
:101E30004FF0010C0CFA00F3B1F800C00CEA0306F5
:101E40009E4220D183004FF00F0C0CFA03F7BC43E5
:101E500005FA03FC4CEA040491F803C0BCF1280F16
:101E600006D14FF0010C0CFA00FCC2F814C00AE0D5
:101E700091F803C0BCF1480F05D14FF0010C0CFAEA
:101E800000FCC2F810C0401C0828D1D31460B1F87F
:101E900000C0BCF1FF0F34DD546800202EE000F1DB
:101EA000080C4FF0010808FA0CF3B1F800C00CEA76
:101EB00003069E4221D183004FF00F0C0CFA03F76A
:101EC000BC4305FA03FC4CEA040491F803C0BCF1DE
:101ED000280F05D100F1080C08FA0CF8C2F814809C
:101EE00091F803C0BCF1480F07D100F1080C4FF086
:101EF000010808FA0CF8C2F81080401C0828CED35C
:101F00005460BDE8F0810000F0B50A4600230024CB
:101F10000021002500F00046B6F1004F02D11D4E11
:101F2000F16901E01B4E7168C0F3034583B200F410
:101F30004016B6F5401F08D121F07061154E766845
:101F400026F07066134F7E6012E000F48016B6F53E
:101F5000801F06D1032606FA05F4A14341F0706103
:101F600006E0460D360103FA06F6B14341F0706112
:101F700022B1460D360103FA06F6314300F0004661
:101F8000B6F1004F02D1034EF16101E0014E7160E4
:101F9000F0BD0000000001400246002093680B40A5
:101FA0000BB1012000E000207047416170470161E2
:101FB000704700BFFEE7000008B50121182004F0BB
:101FC00017FD01211A48FFF79FFF4020ADF80000E0
:101FD00048208DF8030069461648FFF709FF2020C6
:101FE000ADF8000048208DF8030069461148FFF75E
:101FF000FFFE8020ADF8000048208DF80300694600
:102000000C48FFF7F5FE0820ADF8000048208DF8D9
:10201000030069460748FFF7EBFE1020ADF800000B
:1020200048208DF8030069460248FFF7E1FE08BD2D
:1020300000023000000C01402DE9F04104460D463D
:1020400000270AE00A2094FBF0F100FB114024492C
:10205000C8550A2094FBF0F47F1C002CF2D1002616
:102060000AE00A2095FBF0F100FB11501D4988554C
:102070000A2095FBF0F5761C002DF2D118488078E7
:102080003030C2B20021022005F014FA1448407822
:102090003030C2B20021032005F00CFA104800785D
:1020A0000A2190FBF1F201FB1200303000F0FF0832
:1020B00042460021052005F0FDF90A4840783030FD
:1020C000C2B20121022005F0F5F90648007830304F
:1020D000C2B20121032005F0EDF9BDE8F081000056
:1020E000230000202700002008B50121282004F04B
:1020F0007FFC4FF48070ADF8000010208DF80300D5
:1021000003208DF8020069460A48FFF771FE4FF47C
:1021100080710848FFF74BFF4FF40070ADF80000E6
:1021200069460448FFF764FE4FF400710148FFF769
:102130003EFF08BD000C014000BFFEE730B505467C
:102140000C4622460021284600F001F830BD2DE95A
:10215000F04105460B4694460027002402E03F026A
:102160001F43641C042CFAD3604605F0030629467D
:1021700046B1344603E001F8013B401E641C08B13F
:10218000042CF8D30A4601E080C2001F0428FBD2C9
:10219000114602E001F8013B401E0028FAD1BDE8DB
:1021A000F081704770B5002100230F22C47804B37A
:1021B000154C246804F4E064C4F5E064210AC1F11C
:1021C0000403CA40447804FA03F18478144021439C
:1021D00009010E4C0678A155047804F01F0501246E
:1021E000AC4005786D11AD0005F1E025C5F8004162
:1021F00009E0047804F01F050124AC40044D067882
:10220000761145F8264070BD0CED00E000E400E0DA
:1022100080E100E002490143024A1160704700007A
:102220000000FA050CED00E015481648164817485E
:10223000174818481848194819481A481A481B4896
:102240001B481C481C481D481D481E481E481F4866
:102250001F48204820482148214822482248234836
:102260002348244824482548254826482648274806
:102270002748284828482948294800BF70470000B7
:10228000E8820008488200084C820008508200085A
:1022900054820008588200085C82000860820008AE
:1022A00064820008688200086C820008708200085E
:1022B00074820008788200087C820008808200080E
:1022C00084820008888200088C82000890820008BE
:1022D00094820008988200089C820008A08200086E
:1022E000A4820008A8820008AC820008B08200081E
:1022F000B4820008B8820008BC820008C0820008CE
:10230000C4820008C8820008CC820008D08200087D
:10231000D4820008D8820008DC820008E08200082D
:10232000E482000810B50348006810B10148006855
:10233000804710BD7000002070B5044600F0C2F860
:1023400000204849087048490870484908704849C1
:102350000860484908604849087048490870484979
:102360000870484908604849086048490860484979
:102370000870484800680A21B0FBF1F0464908603F
:102380004648006858B14648056845B14348066864
:1023900003E0761E002028602D1D002EF9D10020BC
:1023A0004049086040490860404908604049086069
:1023B0004049086040490860404908604049087049
:1023C00002F006FC02F0FEFC204601F05DFD2088D4
:1023D00000B170BD204602F03FF9208800B1F8E757
:1023E000204602F061F9208800B1F2E7204602F0B1
:1023F00061FA208800B1ECE7204602F031FC208829
:1024000000B1E6E7204602F055FE208800B1E0E783
:10241000204603F077F9208800B1DAE7204602F081
:1024200087F8208800B1D4E7204601F09FFE20887D
:1024300000B1CEE7204604F0D5F8208800B1C8E707
:10244000204603F0A3F8208800B1C2E7204604F03C
:1024500039F9208800B1BCE701F03EFCFFF7E4FE4B
:1024600000BFB6E78400002085000020CC000020DB
:102470002401002028010020B2000020B300002029
:10248000B4000020C0000020C4000020C8000020CC
:10249000D4000020A8820008D00000207882000824
:1024A0007482000864000020680000206C00002096
:1024B0007000002074000020780000207C000020C4
:1024C000020100200A4A1168002002E0002204C133
:1024D000401C084A12689042F8D3054A1268054B1E
:1024E0001B6802EB8302121F034B1A607047000047
:1024F00074820008788200082C01002008480078C7
:10250000012800D0704707480078FA2800DBF9E777
:1025100004480078401C0349087000BFF2E700003F
:10252000850000208400002010B500242E4800788B
:10253000012800D010BD00BFFDF79CFE044600BF7F
:102540002A48007828B900BF2046FDF797FE00BF53
:10255000F0E726480078401E2449087008460078B5
:10256000002805DD00BF2046FDF788FE00BFE1E73B
:102570001F480078002805DD00BF2046FDF77EFEDD
:1025800000BFD7E702F010FB1A4908700846007830
:1025900000EB4000184951F820001849086008462F
:1025A000006817490968884205D100BF2046FDF739
:1025B00065FE00BFBEE711480068D0F89000401CDF
:1025C0000E490968C1F890000E480068401C0D498A
:1025D00008604FF080500C49086000BF2046FDF7AE
:1025E0004DFE00BF00BFA5E785000020840000204D
:1025F000CC000020B3000020D822002028010020B9
:1026000024010020F800002004ED00E02DE9F04155
:1026100004460F4616461D464FF000082A4800782B
:10262000002804DD42F6E1602880BDE8F0811CB995
:1026300045F6C3502880F8E71EB946F2945028802A
:10264000F3E700BF00BF00BFFDF714FE804600BFE8
:1026500000BF1E480078401C1C49087000BF00BF26
:102660004046FDF70BFE00BF00BF00BF18482060CA
:102670006760314604F1200002F096F804F108008A
:1026800002F0ACF9204602F0D3FA12480088401C50
:102690001049088000BF00BF00BFFDF7EBFD80467A
:1026A00000BF00BF09480078401E0849087000BFFD
:1026B00000BF4046FDF7E2FD00BF00BF00BF0020A5
:1026C000288000BFB1E7000084000020CC0000207B
:1026D00051554555BC0000202DE9F04F89B0074603
:1026E000894690461E46DDE912544FF0000B7848AB
:1026F0000078002806DD46F2AE102080002009B0E8
:10270000BDE8F08F27B945F6C35020800020F6E7DA
:1027100026B946F2D52020800020F0E7B8F1000F5E
:1027200003D0B8F5004F02D100E000BF04E045F649
:10273000256020800020E2E700BF664938688842B3
:1027400004D045F6C45020800020D8E70DB1002009
:10275000286000BF00BFFDF78DFD834600BF00BFAE
:1027600023462A46314607F1200001F0E9FF824660
:10277000208840B900BF00BF5846FDF77FFD00BF6D
:1027800000BF5046BBE708F4004058B100BF00BF8F
:102790005846FDF773FD00BF00BF46F2B010208021
:1027A0000020ACE74C48007800280BDD00BF00BFDC
:1027B0005846FDF763FD00BF00BF46F6635020801A
:1027C00000209CE700BF44480078401C4249087044
:1027D00000BF00BF5846FDF751FD00BF00BF00BF5E
:1027E0004B460522394601A802F070F800BF00BF31
:1027F00000BFFDF73FFD834600BF00BF36480078AD
:10280000401E3549087000BF00BF5846FDF736FD31
:1028100000BF00BF00BF00F0BFF800BF00BFFDF762
:1028200029FD834600BF00BF2C48006890F83500A2
:1028300030B1012815D002282AD0032835D11DE057
:1028400026480068D0F85CA024480068B0F8600012
:1028500030801DB121480068006C28600020208075
:102860002BE04FF0000A002030801DB11B480068AB
:10287000006C286046F2A91020801EE04FF0000A8C
:102880000020308005B1286047F2D920208014E074
:102890004FF0000A002030801DB110480068006C25
:1028A000286045F6C250208007E04FF0000A002063
:1028B000308046F62E60208000BF00BF00BF00BF02
:1028C0005846FDF7DBFC00BF00BF504617E700008D
:1028D0008400002051554555CC00002024010020E3
:1028E0002DE9FF470546884691461F460C9C25B9B1
:1028F00045F6C3502080BDE8FF87B7F5004F19D0DB
:1029000009DC9FB1102F12D0B7F5007F10D0B7F5BA
:10291000047F13D10DE0A7F50040103858B1B0F591
:10292000F87F09D0B0F5007F08D106E000BF00BFF6
:1029300000BF00BF00BF00BF00BF03E045F6256039
:102940002080D8E700BF12492868884203D045F6A6
:10295000C4502080CFE7FEF7E7FD06460D4800781B
:1029600000280BDD00204B4642462946CDE9017682
:1029700003940090064801F031FCBCE73B464A4610
:1029800041462846CDE9006402F076F900BFB2E77F
:10299000515545558400002010B50024204800788A
:1029A000002800DD10BD1F480078002800DDF9E791
:1029B00000BFFDF75FFC044600BF02F0F5F81A49BE
:1029C00008700846007800EB4000184951F82000D4
:1029D000174908600846006816490968884205D109
:1029E00000BF2046FDF74AFC00BFDBE71048006847
:1029F000D0F89000401C0E490968C1F890000E48BC
:102A00000068401C0C4908604FF080500B4908607A
:102A100000BF2046FDF732FC00BF00BFC2E7000048
:102A200084000020CC000020B3000020D822002029
:102A30002801002024010020F800002004ED00E01F
:102A400070B50446002518480078002803DD46F6D6
:102A50006250208070BD15480078012803D045F6EB
:102A600089602080F6E712480078FA2803DB45F2F7
:102A700009202080EEE700BF00BFFDF7FBFB054605
:102A800000BF00BF0A480078401C0949087002F0E6
:102A90007DFA00BF00BF2846FDF7F0FB00BF00BF76
:102AA0000020208000BFD5E78400002085000020A2
:102AB000CC0000202DE9F04105460C4616460027C3
:102AC00000BF00BFFDF7D6FB074600BF00BF012DCA
:102AD00003D000200D49087002E001200B49087066
:102AE00014B10B48046006E00A4800680A21B0FBF4
:102AF000F1F00749086000BF00BF3846FDF7BEFB94
:102B000000BF00BF00203080BDE8F081D40000206D
:102B1000D0000020A882000870B504460025204897
:102B20000078002803DD46F66550208070BD1D4802
:102B30000078012803D045F689602080F6E71A481E
:102B4000007818B946F664502080EFE700BF00BF58
:102B5000FDF790FB054600BF00BF13480078401EFC
:102B6000114908700846007800280ADD00BF00BF40
:102B70002846FDF783FB00BF00BF46F66350208068
:102B8000D4E702F011FA00BF00BF2846FDF776FB3C
:102B900000BF00BFFFF700FF0020208000BFC5E797
:102BA0008400002085000020CC00002010B50446E1
:102BB00012480078E8B901F0F7FF1149087008469B
:102BC0000078104908700E48007800EB40000E496C
:102BD00051F820000D490860084600680C4908605B
:102BE000012006490870FEF7FDFB43F6992020807E
:102BF00002E045F68A60208010BD000085000020BC
:102C0000B3000020B2000020D822002028010020BC
:102C1000240100202DE9F04107464FF0000800BFD5
:102C200000BFFDF727FB804600BF00BF00203D49E5
:102C300008603D4908803D4908803D4908603D499C
:102C400008603D4908603D4908603D49088100BF72
:102C500000BF4046FDF712FB00BF00BF00BF00BF32
:102C6000FDF708FB804600BF00BF3648046800BF80
:102C700000BF4046FDF702FB00BF00BF21E000BFE0
:102C800000BFFDF7F7FA804600BF00BF0020783490
:102C9000E06320602063A061A082E0826062A062A5
:102CA000FEF742FC2062783C04F164060020B0810B
:102CB000D4F8BC4000BF00BF4046FDF7DFFA00BFBC
:102CC00000BF002CDBD100BF00BFFDF7D3FA804668
:102CD00000BF00BF1C48056800BF00BF4046FDF7AD
:102CE000CDFA00BF00BF12E000BF00BFFDF7C2FA7F
:102CF000804600BF00BF05F120060020B081AD690D
:102D000000BF00BF4046FDF7B9FA00BF00BF002D6D
:102D1000EAD103F043FB03F0D1FD00203880BDE889
:102D2000F08100009800002092000020E2000020C6
:102D3000F40000200801002014010020C40000203D
:102D4000CC220020FC000020B8000020F8B504468A
:102D500000266946324800F0C1FCBDF8000018B1F9
:102D6000BDF800002080F8BD6A460021022000F076
:102D700029FDBDF8000018B1BDF800002080F2E781
:102D800000BF00BFFDF776FA064600BF00BF002077
:102D90002449086000BF00BF3046FDF76FFA00BF4E
:102DA00000BF00252048006820490968884205D9ED
:102DB0001D4800681D490968B0FBF1F525B91A489E
:102DC00000680A21B0FBF1F56A460021284600F0B0
:102DD000F9FC6946124800F063FABDF8000018B12A
:102DE000BDF800002080BEE700BF00BFFDF742FA3B
:102DF000064600BF00BF00200D4908600948006872
:102E00000C49086001200C49087000BF00BF304623
:102E1000FDF734FA00BF00BF0020208000BFA2E70A
:102E200060270020E4000020A882000890820008AB
:102E3000F4000020E8000020F000002010B5034856
:102E4000006810B101480068804710BD7400002080
:102E50002DE9FF4F87B004469046DDE91BA5DDE96B
:102E60001496179F0020039087480078002805DDFE
:102E700047F24A1028800BB0BDE8F08F1CB947F22A
:102E8000AD102880F7E7B8F1000F03D147F24F10DB
:102E90002880F0E71EB946F62F602880EBE77B48D4
:102EA0000068874203D246F630602880E3E7169830
:102EB000B84203D346F631602880DCE7B9F1400F11
:102EC00003D346F273202880D5E7B9F1000F06D16D
:102ED0006F48844203D046F273202880CBE7B9F1D3
:102EE0003F0F06D16B48844203D046F273202880FE
:102EF000C1E7204602F016FC002028800AF00100FD
:102F000090B10AF0020078B105960020069008E022
:102F10000021059801600598001D05900698401C49
:102F200006900698B842F3D3169806EB80000490FA
:102F3000CDE9007A32464046049B0A9900F06EFBC8
:102F40000590C4F828800A98E0620898206284F806
:102F50003790059820600498A060199860651998CA
:102F600018B94D480068A06501E01998A0651A9845
:102F700060606662A763A4F83CA04FF0000B08E015
:102F8000002104F17C0040F82B100BF1010000F04F
:102F9000FF0BBBF1000FF3D004F16400189901F0AE
:102FA00003FC204600F082F800BF00BF00BFFDF721
:102FB00061F9039000BF00BF38480078401C3749D2
:102FC000087000BF00BF0398FDF758F900BF00BFAD
:102FD00000BF94F8370001F007FE204601F03AFFE9
:102FE000204602F055FB2E480088401C2C490880E2
:102FF0002C48007801282DD000BF00BF00BFFDF78E
:1030000039F9039000BF00BF24480078401E2349CF
:10301000087008460078A0B923480088002809DD18
:1030200000BF00BF0398FDF729F900BF00BF01F002
:103030007FFF0DE000BF00BF0398FDF71FF900BF41
:1030400006E000BF00BF0398FDF718F900BF00BFFE
:1030500000BF10E700BF00BF00BFFDF70BF90390F2
:1030600000BF00BF0D480078401E0C49087000BF2B
:1030700000BF0398FDF702F900BF00BF00BFFFF7D4
:103080008BFC00BFF7E6000084000020A48200084B
:103090000822002044210020D0000020CC00002085
:1030A00000010020850000209000002010B504469B
:1030B0000348006818B1204601490968884710BDD7
:1030C0006400002070B504460D460026674800786D
:1030D000002803DD47F24E10288070BD644884420A
:1030E00003D147F24C102880F7E76248844203D1AD
:1030F00047F24D102880F0E77CB900BF00BFFDF714
:10310000B9F8064600BF00BF5B48046800BF00BFB7
:103110003046FDF7B3F800BF00BF00BF00BF00BFDF
:10312000FDF7A8F8064600BF00BF54480078401CD1
:103130005249087000BF00BF3046FDF79FF800BF3E
:1031400000BF00BF94F8360008282DD2DFE800F059
:1031500004090E10080A0F11204601F0BBFE54E0CE
:1031600053E000BF204603F0FDF84EE000BF00BF73
:1031700000BF204603F0F6F894F83400082810D277
:10318000DFE800F004070508090A0B0600BF00BFCE
:1031900008E000BF00BF00BF00BF204601F056FCA2
:1031A00000E000BF00BF30E000BF00BF00BFFDF780
:1031B00061F8064600BF00BF30480078401E2F4926
:1031C000087008460078A0B92D480088002809DD5D
:1031D00000BF00BF3046FDF751F800BF00BF01F04F
:1031E000A7FE0DE000BF00BF3046FDF747F800BF67
:1031F00006E000BF00BF3046FDF740F800BF00BF4B
:1032000000BF46F62D60288067E700BF04F1640028
:1032100001F074FA204600F037F8204602F050FA28
:1032200018480088401E17490880204602F07AFAA4
:10323000FF2084F8360000BF00BF00BFFDF71AF87A
:10324000064600BF00BF0D480078401E0B490870BD
:1032500000BF00BF3046FDF711F800BF00BF00BF40
:1032600000202880FFF798FB00BF36E7840000208D
:10327000442100200822002024010020CC0000204E
:10328000900000200001002010B5044603480068AB
:1032900018B1204601490968884710BD6800002020
:1032A0007FB504460D46002600BF00BFFCF7E2FFD5
:1032B000064600BF00BF1CB11548006884420AD111
:1032C00000BF00BF3046FCF7D9FF00BF00BF47F288
:1032D000571028807FBD00BF00BF3046FCF7CEFFEF
:1032E00000BF00BF0B48007800280BDD00200090D5
:1032F0000190034602462146CDE90205064800F04A
:103300006DFFE7E72946204602F084FB00BFE1E7B6
:1033100024010020840000205452455310B5044677
:103320000348006818B1204601490968884710BD64
:103330006C0000202DE9F04780460E4614461D46DD
:103340004FF000097D480078002805DD46F2AE10F8
:1033500028800020BDE8F0871EB1B6F5004F02D1ED
:1033600000E000BF04E045F6256028800020F1E77A
:1033700000BF0CB10020206000BF00BFFCF77AFF47
:10338000814600BF00BF6E480068406CA8B36C481F
:103390000068406C401E6A490968486468480068D3
:1033A000476C1CB166480068006C2060FEF7BCF8F2
:1033B00063490968096C401A61490968C1F8A400A9
:1033C0005F480068D0F8A8005D490968D1F8A410EA
:1033D000884207D25A480068D0F8A40058490968C2
:1033E000C1F8A80000BF00BF4846FCF747FF00BF78
:1033F00000BF002028803846ACE7FFE706F4004015
:1034000058B100BF00BF4846FCF738FF00BF00BFFF
:1034100046F2B010288000209CE74A480078002837
:103420000BDD00BF00BF4846FCF728FF00BF00BF10
:1034300046F66350288000208CE700BF41480078A2
:10344000401C4049087000BF00BF4846FCF716FF0B
:1034500000BF00BF00BF434607220021084601F01D
:1034600035FA00BF00BF00BFFCF704FF814600BF74
:1034700000BF34480078401E3249087000BF00BFCA
:103480004846FCF7FBFE00BF00BF00BFFFF784FA11
:1034900000BF00BFFCF7EEFE814600BF00BF28481A
:1034A000006890F8350020B1012826D0032834D1D7
:1034B0002CE0FCB122480068006C2060FEF734F874
:1034C0001F490968096C401A1D490968C1F8A40020
:1034D0001B480068D0F8A80019490968D1F8A41061
:1034E000884207D216480068D0F8A4001449096839
:1034F000C1F8A8000020288013E01CB11048006823
:10350000006C206046F2A91028800AE00CB100206F
:10351000206047F2D920288003E046F62E602880FC
:1035200000BF00BF06480068476C00BF00BF4846A8
:10353000FCF7A4FE00BF00BF38460BE78400002064
:1035400024010020CC0000202DE9F04705460E465E
:1035500017461C464FF0000A2E480078002804DD6C
:1035600047F259102080BDE8F0871EB946F2D520F9
:103570002080F8E71FB946F2D5202080F3E700BF8E
:1035800000BFFCF777FE824600BF00BF0DB922489E
:103590000568286868B900BF00BF5046FCF76EFE9A
:1035A00000BF00BF00203060386047F2521020801A
:1035B000D9E795F83C0000F0010068B900BF00BFF2
:1035C0005046FCF75BFE00BF00BF00203060386053
:1035D00047F254102080C6E700BF00BF5046FCF7FA
:1035E0004DFE00BF00BF4FF00008D5F8249003E067
:1035F00009F1040908F10108D9F800000028F7D002
:10360000C6F80080A86BA0EB08003860002020807E
:1036100000BFA8E78400002024010020F0B5044684
:10362000DDE9055602EB85004FF0807C071F384628
:10363000C7F800C0071F38463C60DFF89CC0071F72
:103640003846C7F800C04FF0123C071F3846C7F88D
:1036500000C04FF0033C071F3846C7F800C04FF0CA
:10366000023C071F3846C7F800C0071F38463B60BA
:10367000071F384639604FF0113C071F3846C7F81E
:1036800000C04FF0103C071F3846C7F800C04FF08D
:10369000093C071F3846C7F800C04FF0083C071F19
:1036A0003846C7F800C04FF0073C071F3846C7F838
:1036B00000C04FF0063C071F3846C7F800C04FF067
:1036C000053C071F3846C7F800C04FF0043C071FF1
:1036D0003846C7F800C0F0BD555B00087FB5054609
:1036E0000C461248854203D147F25B1020807FBD13
:1036F0000F48854203D147F25C102080F7E70D4860
:10370000007800280BDD002000900190034602465F
:103710002946CDE90204084800F060FDE7E72146AC
:10372000284602F085FC00BFE1E7000044210020AC
:1037300008220020840000205453555310B51D4822
:10374000006810B11B4800688047FDF7EDFE044695
:103750001948006819490968884215D01648006858
:10376000D0F89800201A14490968C1F8940012484A
:103770000068D0F89C0010490968D1F894100844FA
:103780000D490968C1F89C000C480068C0F89840D1
:1037900009480068D0F8B40009490968884205D290
:1037A0000748006804490968C1F8B40000200449CA
:1037B000086010BD780000202401002028010020AE
:1037C000C80000202DE9F04105460E4614460027AA
:1037D0003F480078002804DD47F275202080BDE8CE
:1037E000F0813C480078002803DD46F663502080D5
:1037F000F5E736B1022E05D0042E0AD0082E09D1E5
:1038000001E000BF00BF1DB947F27E202080E6E73F
:1038100004E003E045F625602080E0E700BF00BF3C
:1038200000BF00BFFCF726FD074600BF00BF2948C8
:103830000078401C2749087000BF00BF3846FCF7DD
:103840001DFD00BF00BF00BF01202349096881F8AA
:1038500036002346324629461F48006802F0A4FC81
:103860002088A8B100BF00BF00BFFCF703FD0746DA
:1038700000BF00BF17480078401E1649087000BFFF
:1038800000BF3846FCF7FAFC00BF00BF00BFA6E748
:103890001148006801F01EFB00BF00BF00BFFCF72D
:1038A000E9FC074600BF00BF0A480078401E0949EE
:1038B000087000BF00BF3846FCF7E0FC00BF00BF47
:1038C00000BFFFF769F80020208000BF87E70000F5
:1038D00084000020CC000020240100202DE9FF5F9F
:1038E00005460E4617469846DDE90EA400200090D6
:1038F00072480078002804DD47F275202080BDE87A
:10390000FF9F6F480078002803DD46F66350208053
:10391000F5E70AF00E0BBBF1000F09D0BBF1020F67
:1039200007D0BBF1040F10D0BBF1080F0ED101E09E
:1039300000BF00BFB8F1000F06D12FB926B91DB9DD
:1039400047F27E202080DAE704E003E045F62560B8
:103950002080D4E700BF2AF01E0008B1012000E05B
:10396000002003900398012803D145F625602080AC
:10397000C5E7CAF3001002900298C0B9B8F57A7F83
:1039800003D347F27B202080B9E73B2F03DD47F2CA
:103990007A202080B3E73B2E03DD47F27920208098
:1039A000ADE7632D12DD47F278202080A7E742F2D1
:1039B0000F70864203DD47F2792020809FE7B5F53E
:1039C0007A7F03DB47F27820208098E73D48D0F8E3
:1039D00000904FF4FA70B0FBF9F0404400FB09F09E
:1039E0004FF47A71B0FBF1F14FF461606843C6EBBC
:1039F000061200EB8200384400FB09100190019888
:103A0000002856D000BF00BF00BFFCF733FC009079
:103A100000BF00BF2A480078401C2949087000BF39
:103A200000BF0098FCF72AFC00BF00BF00BF0120C8
:103A30002549096881F8360023465A4622480199EB
:103A4000006802F0B1FB2088A8B100BF00BF00BF32
:103A5000FCF710FC009000BF00BF19480078401E22
:103A60001749087000BF00BF0098FCF707FC00BFB3
:103A700000BF00BF43E71448006801F02BFA00BF05
:103A800000BF00BFFCF7F6FB009000BF00BF0C4872
:103A90000078401E0A49087000BF00BF0098FCF77C
:103AA000EDFB00BF00BF00BFFEF776FF00202080C7
:103AB00002E047F27E20208000BF20E78400002043
:103AC000CC000020A88200082401002010B586B098
:103AD00000F01EF8FDF728FD044605A8002100911E
:103AE000CDE9011403900748007800EB4000064A36
:103AF00002EB800100231A46044800F06FFB06B079
:103B000010BD0000B2000020D82200205449434BD1
:103B100010B50348006810B101480068804710BD27
:103B20007C0000202DE9F84F0446884616461F46C3
:103B3000DDE90BABDDF828900D9D002000903748A3
:103B40000078002804DD47F243302880BDE8F88F74
:103B50001CB945F6C3502880F8E7B9F1010F08D029
:103B6000B9F1020F0BD11FB947F240302880EDE7C1
:103B700009E01EB947F23F302880E7E703E045F649
:103B800025602880E2E700BF00BF00BF00BFFCF750
:103B900071FB009000BF00BF21480078401C204905
:103BA000087000BF00BF0098FCF768FB00BF00BFB3
:103BB00000BF012084F82A001A482060C4F804805D
:103BC00026620020A061E0616762A4F82890C4F832
:103BD00008A0C4F80CB020616061204602F05EFDD0
:103BE00011480088401C1049088000BF00BF00BF7A
:103BF000FCF740FB009000BF00BF09480078401E62
:103C00000749087000BF00BF0098FCF737FB00BFF2
:103C100000BF00BF0020288000BF97E7840000207D
:103C2000CC000020544D52201001002038B505462C
:103C30000C4627480078002804DD47F243302080F6
:103C4000002038BD25B947F2423020800020F8E737
:103C500020492868884204D045F6C45020800020BE
:103C6000EFE76846FEF7ECFE95F82A0000B301285E
:103C700012D0022802D0032822D10EE0284602F0FA
:103C80008FFE0021284602F0B1FD6846FEF744FF92
:103C9000002020800120D4E700BF0021284602F048
:103CA000A5FD6846FEF738FF002020800120C8E708
:103CB0006846FEF731FF47F23D3020800020C0E724
:103CC0006846FEF729FF47F2413020800020B8E720
:103CD00084000020544D5220244825482548264879
:103CE00026482748274828482848294829482A4854
:103CF0002A482B482B482C482C482D482D482E4824
:103D00002E482F482F4830483048314831483248F3
:103D100032483348334834483448354835483648C3
:103D200036483748374838483848394839483A4893
:103D30003A483B483B483C483C483D483D483E4863
:103D40003E483F483F484048404841484148424833
:103D50004248434843484448444845484548464803
:103D600046484748474800BF70470000EC820008BB
:103D700054840008EE820008EF820008F0820008F8
:103D8000F4820008F8820008F58200082083000809
:103D9000218300082283000824830008268300086A
:103DA000288300082A8300082C8300084C8300081D
:103DB0004E83000850830008528300085483000893
:103DC0005683000858830008848300088583000810
:103DD00086830008888300088A8300088B83000894
:103DE0008C8300088E83000890830008928300086B
:103DF000948300089683000898830008C88300080D
:103E0000C9830008CA830008CB830008CC8300085C
:103E1000CE830008D0830008F8830008F9830008E7
:103E2000FA830008FB830008FC830008FE83000877
:103E30000084000804840008058400080684000843
:103E40000784000808840008098400080A84000820
:103E50000B8400080C8400080E8400080F840008FE
:103E600010840008128400081484000815840008D7
:103E7000188400084C8400084D8400084E84000813
:103E800050840008528400080021034A1160034A4C
:103E900011800180704700009C000020A0000020DD
:103EA0002DE9F04F85B00446894692469B46DDF8E1
:103EB00038800020009000BF00BFFCF7DBF90090C5
:103EC00000BF00BFBAF1000F0AD0BAF1010F0DD048
:103ED000BAF5004F05D06FF40040504460B906E0D9
:103EE00000BF206A40EA0900206214E000BF206A97
:103EF00020EA090020620EE000BF00BF0098FCF736
:103F0000BDF900BF00BF45F62560A8F800000020FD
:103F100005B0BDE8F08F00BFC4F824B004F108007C
:103F200001900198008958B900BF00BF0098FCF7C4
:103F3000A5F900BF00BF0020A8F80000206AE7E74D
:103F400000BF61480078401C5F49087000BF00BF97
:103F50000098FCF793F900BF00BF00BF0198076805
:103F6000BD687FE07868029095F8880000F00F0047
:103F700003900398012821D002282ED0042802D0D3
:103F8000082836D10EE0206AD5F8801000EA010634
:103F9000D5F88000B04204D15A463146284600F098
:103FA00097F859E0206AD5F8801000EA010626B19A
:103FB0005A463146284600F08BF84DE0D5F880008F
:103FC000216A20EA0106D5F88000B04204D15A46A1
:103FD0003146284600F07CF83EE0D5F88000216AA2
:103FE00020EA010626B15A463146284600F070F80C
:103FF00032E000BF00BF00BFFCF73CF9009000BFFB
:1040000000BF31480078401E2F49087008460078EC
:10401000A0B92E480088002809DD00BF00BF009825
:10402000FCF72CF900BF00BF00F082FF0DE000BFDD
:1040300000BF0098FCF722F900BF06E000BF00BFF8
:104040000098FCF71BF900BF00BF00BF43F6FF203C
:10405000A8F8000000205BE700BF029F0FB1BD6819
:1040600000E00025002D7FF47DAF00BF00BF00BF42
:10407000FCF700F9009000BF00BF13480078401E15
:104080001149087000BF00BF0098FCF7F7F800BFA7
:1040900000BF00BF0AF4004008B9FEF77DFC00BF76
:1040A00000BFFCF7E7F8009000BF00BF206A049053
:1040B00000BF00BF0098FCF7E1F800BF00BF002080
:1040C000A8F80000049823E7CC000020900000200E
:1040D00070B504460E4615463434266500206070DF
:1040E0002070E560A078343C082816D2DFE800F0A4
:1040F000040508090706101100BF00BF00BF0DE04E
:1041000000BF204601F078FC002084F8360005E06E
:1041100000BF042084F8360000E000BF00BF204646
:1041200000F094FC70BD0000002400BF19E000BF47
:1041300000BFFCF79FF8044600BF00BF09480068B5
:10414000401C0849086008480068401C064908608F
:1041500000BF00BF2046FCF791F800BF00BFFEF78C
:10416000E1F8E4E780000020E400002010B58AB008
:10417000044600200E4908600B2000210591CDE97E
:104180000704069108460B4909680B4A12680B4B55
:104190001B68CDE90132CDE903103F200023084A16
:1041A00008A100900C48FEF753FE0AB010BD0000B5
:1041B00080000020508200084C82000848820008DD
:1041C0002941000875432F4F532D4949492049641F
:1041D0006C65205461736B00442100202DE9F84F79
:1041E00004460D4616461F46DDE90BABDDF8289068
:1041F000DDF834800020009000BF00BFFCF73AF8E3
:10420000009000BF00BF2B4800882B4909888842D6
:104210003EDA28480088401C264908802748008844
:104220000988884203DA2348008824490880244802
:104230000068046022480068856021480068C66004
:104240001F48006807821E480068C0F814901C4888
:104250000068A0F818A01A480068C0F81CB01848F8
:104260000068406816490860012016490881164810
:1042700008604860002000F0B7FC1448007818B1CE
:1042800012480078124908700020A8F8000008E0E1
:1042900010480088401C0F49088044F25360A8F879
:1042A000000000BF00BF0098FBF7E8FF00BF00BFA1
:1042B000BDE8F88F900000205C820008920000208A
:1042C00088000020D822002008220020B200002010
:1042D000B4000020940000203EB5594800680068F2
:1042E000584A811A904279D00FDC57490844002877
:1042F0003ED056490844A8B155490844002860D02A
:104300005449084400286AD13FE053480844002833
:1043100050D052490844002862D05149084400282E
:10432000F1D110E002A8464D00902D68EB69444D94
:104330002D682A8B424D2D686969414D2D68A8680A
:10434000FFF7AEFD7AE002A93D480068C0693C4D28
:10435000CDE900012D682B8B394D2D682A8A384D07
:104360002D68E968364D2D68A86800F085FC65E089
:10437000334B1B68DA69324B1B68198B304B1B6857
:10438000986802AB00F0A2FE58E002A92C48006831
:10439000C0692B4DCDE900012D682B8B284D2D6870
:1043A0002A8A274D2D68E968254D2D68A86801F0F7
:1043B0001DFA43E022490968886802A901F02AFB36
:1043C0003CE01F4B1B68DA691D4B1B68198B1C4BAB
:1043D0001B68986802AB01F0C9FB2FE007E02CE0F6
:1043E00017490968886802A901F022FE26E01D49E4
:1043F000097801EB41011C4A02EB810000F0F2FD5B
:104400000F48006802AB0021C269184801F0AEFBFA
:1044100017480068401E164908600846006858B9E9
:10442000144800680860FDF77FF8044602AB224696
:104430000021114801F09AFB00E000BF00BF3EBD23
:104440008C0000205449434BADBAB2BE0DF90BFAB3
:10445000F2F8F7FF0006F6FF00F7FDF700FFEFFFA9
:1044600003FE0FFEB4000020D82200209C2600206E
:10447000200100201C01002060270020002700BF31
:104480004CE0002648E000BF00BFFBF7F3FE074604
:1044900000BF00BF2248008888B900202149088158
:1044A0000860486000F0B2FB00BF00BF3846FBF771
:1044B000E5FE00BF00BFFEF76FFA01262CE000BF4B
:1044C00000BF3846FBF7DAFE00BF00BFFDF72CF84F
:1044D0000546FFF701FFFDF727F8441B1248006867
:1044E000A04201D21048046000BF00BFFBF7C2FE2B
:1044F000074600BF00BF0D48006840680B490860D0
:1045000007480088401E0649088000BF00BF3846A3
:10451000FBF7B4FE00BF00BF002EB4D0B1E700002F
:1045200090000020D8220020980000208C0000205D
:10453000F0B589B00546002031490880314800684F
:1045400020B944F25260288009B0F0BD2E4800889E
:10455000022803DA44F254602880F5E700202B4952
:104560000860284804682646203600270CE02848C2
:1045700020600020A060E06020826061208366608F
:1045800020342036781C87B21F4800888742EEDB33
:10459000203C1C48066866601E4806601E4806608F
:1045A00000201E4908801E4908801E48006818B96E
:1045B00044F255602880C7E71B4800681B4909681A
:1045C000884203D244F256602880BDE703200021D0
:1045D0000591CDE90705069113480068144A126851
:1045E000104B1B68CDE90301CDE9013200910B4668
:1045F000104A11A11748FEF72BFC00BFA4E70000EA
:1046000094000020588200085C8200089800002076
:104610004E4F4E45880000208C0000209000002066
:1046200092000020648200086C820008A4820008C6
:10463000688200087D44000875432F4F532D494977
:104640004920495352205175657565205461736B3B
:1046500000000000082200200021034A1160034AE4
:104660001180018070470000A4000020A8000020F5
:1046700070B502460B461046114610315E1EB5B2AB
:10468000002408E00160002646600681C660103004
:104690001031661CB4B2AC42F4DB00260660466002
:1046A0000681C66070BD000010B504461048006861
:1046B00018B945F21E70208010BD0E48008818B948
:1046C00045F21D702080F7E70A4801880848006815
:1046D000FFF7CEFF064800680749086005480088D4
:1046E00088800020C8800881208000BFE4E70000A7
:1046F0008882000880820008CC22002010B5014684
:1047000048894B89002B17DD0A680C4B1B68136026
:104710000A4C4B6823602346DB884C891B1B074CE3
:10472000E38023469B884C892344044CA3800023C8
:104730004B818B810B604B6010BD0000CC220020B0
:10474000F0B504460D46608940B90020288002B1CA
:10475000106046F2925018800020F0BD61684E68EB
:10476000088928800AB1C8681060086860606068BD
:1047700018B900202060608102E06089401E6081DD
:10478000084800680860074801608088401C054FA1
:10479000B8803846C088401EF88000201880304617
:1047A000DBE70000CC2200200181002242818281CF
:1047B00002604260704700002DE9F0410D46DDE9DE
:1047C0000674B0F80AC0B0F80880C44505DB46F2AC
:1047D000935CA4F800C0BDE8F081DFF8D4C0BCF859
:1047E00004C0BCF1000F04D145F21D7CA4F800C048
:1047F000F1E7DFF8BCC0DCF80010DFF8B480D1F8D6
:1048000000C0C8F800C0C446BCF804C0ACF1010C3C
:10481000A8F804C0C446BCF806C00CF1010CA8F806
:1048200006C0C446BCF808C0B8F80680C44507DA1C
:10483000DFF87CC0BCF806C0DFF87480A8F808C0B8
:10484000B0F80AC0BCF1000F06D1016041604FF022
:10485000010CA0F80AC017E003F0100CBCF1000F27
:1048600007D1066831604FF0000CC1F800C001604C
:1048700004E0D0F804C0C1F800C04160B0F80AC03C
:104880000CF1010CA0F80AC0B0F80CC0B0F80A8016
:10489000C44503DAB0F80AC0A0F80CC04D600A8124
:1048A000CF604FF0000CA4F800C000BF93E70000F9
:1048B000CC2200200021034A1160034A11800180AC
:1048C00070470000AC000020B00000202DE9F0414E
:1048D00005460C4616461F461548006880F83460A9
:1048E00000201349096881F83500394610480068EE
:1048F00000F0B2FE6CB104F10808EC600122294618
:104900000B48006800F016F82946404600F06BF8A6
:1049100006E0002006490968C88705490968086358
:1049200003480168204600F019F8BDE8F081000056
:104930002401002010B5C287016300230AE000248F
:104940004C600C600C614C610C83CC618860203140
:104950005C1CA3B29342F2DB10BD000030B548B13D
:104960004568C1F8C05000F10804226893681D6AC8
:10497000C56113E091F83450022D02D0072D08D103
:1049800003E007A5C1F8C05007E007A5C1F8C05073
:1049900003E008A5C1F8C05000BF00BF30BD000053
:1049A0005461736B205100005461736B2053656D2B
:1049B000000000002000000030B507A5C1F8C0507D
:1049C00000F1080422681AB193681D6AC56101E00C
:1049D00001A5C56130BD000020000000002101607C
:1049E000416001817047F0B58E6896F837500789AD
:1049F0003FB90127078100274F600F6001604160C8
:104A000023E007897F1C0781026806E0946894F818
:104A10003770AF4200DD02E05268002AF6D100BFD5
:104A200032B900274F6043680B60596041600CE069
:104A300017682FB9116000270F604A60016004E019
:104A400013680B604A6059601160F0BD2DE9F041B8
:104A50000446256BE68F0AE0D5F80C8008F10807BC
:104A60002946384600F00AF82035701E86B2002E1E
:104A7000F2DC0020E0872063BDE8F08110B50489F6
:104A8000012C03D100240460446011E00C6824B9B7
:104A90004A680024146002600AE04C6824B90B687C
:104AA00000245C60436003E00B684A685A6013604E
:104AB0000489641E048100244C600C6010BD2DE943
:104AC000F84306460C4617469846089D94F836006B
:104AD000082850D2DFE800F00405080906072B2C4F
:104AE00000BF00BF00BF47E000BF94F834000328B8
:104AF00007D143463A4621463046009500F03FF83C
:104B000003E0E765A4F86080256436B12046FFF72E
:104B10009DFF21463046FFF74FFF204600F06CFF17
:104B200000203434A070607004F8340924E000BF21
:104B300094F83400032807D143463A4621463046CC
:104B4000009500F01CF803E0E765A4F86080256498
:104B5000204601F007FC36B12046FFF777FF2146DB
:104B60003046FFF729FF04203434A0700020607025
:104B700004F8340900E000BF00BFBDE8F883F0B5D9
:104B80000446059E086BCD8F0AE0C768A74204D192
:104B9000046142610383C66104E020306F1EBDB230
:104BA000002DF2DC00BFF0BD70B50025074C03E01E
:104BB00005F12000C5B2241D20680028F8D0206827
:104BC000FBF763FB2844C5B2284670BD5C0000209B
:104BD000002004E00021034A42F82010401C022873
:104BE000F8D370475C00002030B5420900F01F0385
:104BF0000121C3F11F04A140034C54F822400C438F
:104C0000014D45F8224030BD5C00002030B542091E
:104C100000F01F030121C3F11F04A140034C54F80D
:104C200022408C43014D45F8224030BD5C000020FD
:104C300009A1C161002141610849096811B9002138
:104C4000816105E005490968816104490968486195
:104C5000024908607047000020000000B8000020F2
:104C60000021034A1160034A11800180704700004F
:104C7000B8000020BC0000202DE9F04F85B00746A9
:104C80008A4693461C460020029000BF00BF00BF2A
:104C9000FBF7F0FA029000BF00BF48480078401CC4
:104CA0004649087000BF00BF0298FBF7E7FA00BF53
:104CB00000BF00BF07F108063089002842D104F088
:104CC000100010B94FF0000801E04FF01008DDE9C6
:104CD0000E0143465A46CDE90001514607F1200036
:104CE000FFF76AFD00BF00BF00BFFBF7C3FA0290E9
:104CF00000BF00BF31480078401E304908700846A8
:104D00000078A0B92E480088002809DD00BF00BF48
:104D10000298FBF7B3FA00BF00BF00F009F90DE0FD
:104D200000BF00BF0298FBF7A9FA00BF06E000BF72
:104D300000BF0298FBF7A2FA00BF00BF00BF05B09A
:104D4000BDE8F08F04F4007008B1358900E001255A
:104D5000D6F8009011E0D9F808000390D9F80400C3
:104D600004900E985B465246009038460399FFF730
:104D7000A6FEDDF81090681E85B2002DEBD100BFB5
:104D800000BF00BFFBF776FA029000BF00BF0B48E0
:104D90000078401E0949087000BF00BF0298FBF769
:104DA0006DFA00BF00BF00BF04F4004008B9FDF772
:104DB000F3FD00210F98018000BFC0E7CC00002068
:104DC0009000002000210AE001EB4102054B03EBBB
:104DD000820000220281026042604A1CD1B2402956
:104DE000F2D37047D822002010B5044694F837005B
:104DF000FFF7FAFE94F8370005490978884203D195
:104E0000204600F027F802E0204600F003F810BD2D
:104E1000B200002010B590F8373003EB43030C4C80
:104E200004EB83010B893BB901230B810023C36091
:104E300003610860486009E00B895B1C0B810B680B
:104E4000C360002303610A681061086010BD0000A0
:104E5000D822002010B590F8373003EB43030B4CF9
:104E600004EB83010B893BB901230B810023C36051
:104E700003610860486008E00B895B1C0B8100231C
:104E8000C3604A680261D060486010BDD82200202B
:104E900010B501460C8924B1012C03D0022C0CD191
:104EA00001E000BF14E008684A6802610024C460A1
:104EB0001461D0600A6048600AE008684A68C36804
:104EC00000241C61C4600261D0600B60486000BFB8
:104ED00000BF10BD2DE9F041054695F8370000EB05
:104EE0004000124901EB80042F69EE6887B946B98A
:104EF000002020812060606095F83700FFF786FE73
:104F00000EE02089401E208100203061266007E0ED
:104F10002089401E2081FE600EB9676000E0376185
:104F200000202861E860BDE8F0810000D822002060
:104F300010B5002400BFFBF79DF9044600BF002018
:104F40000D4908700D480E49086008460068D0F801
:104F50009000401C0968C1F890000A480068401C95
:104F6000084908604FF080500749086000BF20469C
:104F7000FBF784F900BF10BDB30000200822002019
:104F800028010020F800002004ED00E010B50448DE
:104F90000078012803D1FCF7C7FA0249086010BD68
:104FA000CC000020C000002010B50A48007880B96D
:104FB000FCF7BAFA08490968441A08480068A04290
:104FC00001D20648046006480068A04201D20448A5
:104FD000046010BDCC000020C0000020C4000020F0
:104FE000C800002070B5054600262E48007801282C
:104FF00000D070BD00BF00BFFBF73CF9064600BF04
:1050000000BF2C683CB900BF00BF3046FBF736F943
:1050100000BF00BFEDE72448844207D100BF00BFB6
:105020003046FBF72BF900BF00BFE2E7A06D10B1DF
:10503000A06D401EA065A06D38B100BF00BF304616
:10504000FBF71CF900BF00BFD3E72889022807DA65
:1050500000BF00BF3046FBF711F900BF00BFC8E733
:1050600012480078002807DD00BF00BF3046FBF77C
:1050700005F900BF00BFBCE72846FFF709FF2C6811
:10508000606D18B90A480068A06501E0606DA06510
:1050900000BF00BF3046FBF7F1F800BF00BF00BF04
:1050A000A7E70000D400002044210020CC0000200D
:1050B000D00000200021034A1160034A11800180C2
:1050C00070470000D8000020DC0000202DE9FF5FC1
:1050D0000446884691461D460020019000BF00BF4F
:1050E000FBF7C8F8019000BF00BF04F1080738893A
:1050F00000284FD10420012804D0022814D004280D
:1051000034D123E0206AFF280DD100BF00BF0198F1
:10511000FBF7B4F800BF00BF46F6C550288000205A
:1051200004B0BDE8F09F22E04FF6FF71206A88428C
:105130000BD100BF00BF0198FBF7A0F800BF00BF74
:1051400046F6C55028800020EAE710E0206A401C9F
:1051500058B900BF00BF0198FBF790F800BF00BF2F
:1051600046F6C55028800020DAE700E000BF00BF07
:10517000206A401C2062D4F820A0C4F8249000BF0C
:1051800000BF0198FBF77AF800BF00BF002028801D
:105190005046C5E700BF25480078401C23490870E9
:1051A00000BF00BF0198FBF769F800BF00BF00BF58
:1051B00008F4007008B13E8900E00126D7F800B07D
:1051C00011E0DBF808000290DBF8040003900023F4
:1051D0001A46CDF8009020460299FFF770FCDDF8E2
:1051E0000CB0701E86B2002EEBD1D4F820A000BF08
:1051F00000BF00BFFBF73EF8019000BF00BF0B48A7
:105200000078401E0949087000BF00BF0198FBF7F5
:1052100035F800BF00BF00BF08F4004008B9FDF733
:10522000BBFB0020288050467AE70000CC0000201D
:1052300086B00020009000BF06E0C349096848001E
:1052400001AA0021FEF7BEFAC04800780128F4D177
:1052500001A8FDF7DFFC0027BD480068BA490968CE
:10526000884205D9BA480068B7490968B0FBF1F728
:1052700027B9B74800680A21B0FBF1F762E1FCF7F3
:1052800053F9804600BF00BFFAF7F4FF009000BF5B
:1052900000BFB0480068B04908600020AD49086010
:1052A00000BF00BF0098FAF7E9FF00BF00BFAB489E
:1052B0000068A9490968884248D9A8480068A849EF
:1052C000884205D242F2107003900120029023E040
:1052D000A2480068A349884205D24FF47A7003902F
:1052E0000A20029018E09D4800689F49884203D236
:1052F0006420039002900FE0984800689B49884220
:1053000005D20A2003904FF47A70029004E0012045
:10531000039042F210700290904801680298B1FB2D
:10532000F0FA8D49039809684843B0FBFAF042F25D
:105330001071081A8E4908808E48008809888842B2
:1053400008DA8B4800888B49088003E042F210702D
:1053500087490880FDF772FD002500BF00BFFAF7FE
:1053600089FF009000BF00BF8348046800BF00BFF2
:105370000098FAF783FF00BF00BF5AE000BF00BFEC
:1053800000BFFAF777FF009000BF00BF7B480078AE
:10539000401C7A49087000BF00BF0098FAF76EFF02
:1053A00000BF00BF00BF54F89C0F6060002044F8AD
:1053B0009C0900BF00BF00BFFAF75CFF009000BF70
:1053C00000BF6E480078401E6C490870084600789F
:1053D000A0B96B480088002809DD00BF00BF009815
:1053E000FAF74CFF00BF00BFFFF7A2FD0DE000BFC2
:1053F00000BF0098FAF742FF00BF06E000BF00BF01
:105400000098FAF73BFF00BF00BF00BFD4F8A00030
:10541000054400BF00BFFAF72DFF009000BF00BF9A
:10542000D4F8BC4000BF00BF0098FAF727FF00BFC8
:1054300000BF002CA2D145B34948854205D242F2B3
:10544000107005904FF0010B1BE04648854205D2D5
:105450004FF47A7005904FF00A0B12E042488542F3
:1054600003D26420059083460BE04048854204D275
:105470000A2005904FF47A7B03E00120059042F268
:10548000107BB5FBFBF0049003E0002005900120A9
:10549000049000BF00BFFAF7EDFE009000BF00BF10
:1054A0003548046800BF00BF0098FAF7E7FE00BF68
:1054B00000BF2BE0D4F8A000059948430499B0FB45
:1054C000F1F086B242F21070864200D90646A4F886
:1054D0008C60B4F88E00B04201DAA4F88E6001ABA3
:1054E00004F1AC02111D2046FEF72EF800BF00BFEC
:1054F000FAF7C0FE009000BF00BFD4F8BC4000BF68
:1055000000BF0098FAF7BAFE00BF00BF002CD1D14F
:105510001C480078012805D100201A49087001A80C
:10552000FDF778FBFCF700F8A0EB080916480068C7
:10553000484502D21448C0F8009001AA002138461C
:10554000FEF740F99BE6000090820008F000002082
:10555000A8820008E4000020EC000020E800002001
:10556000801A060000093D00005A62020084D71725
:10557000E0000020E2000020FC000020CC00002021
:1055800090000020DE000020F400002010B58AB05A
:10559000044600201F4908601F4908601F49086031
:1055A0001F4908701F4908701F48006820B946F657
:1055B0002B6020800AB010BD1C4800681C49096897
:1055C000884203D246F62C602080F3E71948007821
:1055D0003F2803D346F62A602080EBE70320002112
:1055E0000591CDE907040691084610490968124A59
:1055F00012680D4B1B68CDE90132CDE903100D484F
:10560000007800230D4A0EA100901248FDF720FCFF
:1056100000BFCFE7E4000020EC000020E8000020FD
:10562000F0000020DE000020948200089C82000828
:10563000A48200088C820008988200083152000879
:1056400075432F4F532D4949492053746174205499
:1056500061736B00D825002038B504460D4685B12E
:105660006B4602222946204600F09EFDBDF8000050
:1056700018B9032084F8360006E0022084F83600CA
:1056800002E0022084F836002046FFF723FC38BDF4
:105690000021C0F8B8100949096819B90021C0F8FB
:1056A000BC1007E005490968C0F8BC100349096847
:1056B000C1F8B8000149086070470000FC000020F4
:1056C000D0F8B820D0F8BC104AB90D4B196011B110
:1056D0000023C1F8B8300023C0F8BC300FE029B96E
:1056E0000023C2F8BC30C0F8B83008E0C2F8BC10E3
:1056F000C1F8B8200023C0F8BC30C0F8B8307047FB
:10570000FC0000200021044A1160044A1180044A70
:105710001160018070470000FC00002000010020A3
:10572000F800002070B5044600202060A060606092
:10573000E06020616061A061E06129A0206200203A
:105740006062A062E0622064E065A4F8600000216D
:1057500004F16400FFF728F8002044F8740F60603B
:10576000E060A0822061743C002506E0002104F185
:105770007C0040F82510681CC5B2002DF6D0002032
:105780003434206120676067606084F85600E06709
:10579000A06720814FF0004060610020A061E061BF
:1057A00020626062A4F85800A4F85A00E065206600
:1057B000FBF7BAFE064666660020A066C4F88000C5
:1057C00020706070A0704020E0700020C4F8840059
:1057D000C4F8880004A0C4F88C00343C70BD0000FC
:1057E0003F5461736B000000200000002DE9FC476E
:1057F00004460F4690469946DDE90A654FF0000AD7
:1058000000BF00BF00BFFAF735FD824600BF00BFF2
:1058100076480078401C7549087000BF00BF5046AC
:10582000FAF72CFD00BF00BF00BF0CB97048046838
:105830000020288094F8360008287DD2DFE800F0A8
:1058400004053E3F0607404100BF00BF00BF4B4676
:105850004246394604F16400CDE90065FEF7ACFF2D
:1058600000BF00BF00BFFAF705FD824600BF00BFC2
:105870005E480078401E5D49087008460078A0B96F
:105880005C480088002809DD00BF00BF5046FAF7D9
:10589000F5FC00BF00BFFFF74BFB0DE000BF00BFF2
:1058A0005046FAF7EBFC00BF06E000BF00BF5046D1
:1058B000FAF7E4FC00BF00BF00BF93E000BF00BFE9
:1058C00000BF94F83400022821D143463A462146CD
:1058D00000200096FFF7F3F800BF00BF00BFFAF703
:1058E000C9FC824600BF00BF40480078401E3F49C7
:1058F000087000BF00BF5046FAF7C0FC00BF00BFF1
:1059000000BF09F4004090BBFDF746F838E04B4675
:105910004246394604F16400CDE90065FEF74CFFCC
:1059200000BF00BF00BFFAF7A5FC824600BF00BF62
:105930002E480078401E00E023E02C4908700846FD
:105940000078A8B92B480088002809DD00BF00BFF7
:105950005046FAF793FC00BF00BFFFF7E9FA0EE0EC
:1059600000BF00BF5046FAF789FC00BF07E007E020
:1059700000BF00BF5046FAF781FC00BF00BF00BF68
:1059800030E000BF00BF00BFFAF774FC824600BFE2
:1059900000BF16480078401E144908700846007879
:1059A000A0B914480088002809DD00BF00BF504698
:1059B000FAF764FC00BF00BFFFF7BAFA0DE000BFC2
:1059C00000BF5046FAF75AFC00BF06E000BF00BF18
:1059D0005046FAF753FC00BF00BF00BF46F62D60EB
:1059E000288000BF00BFBDE8FC870000CC0000207D
:1059F000240100209000002010B50446204600F04D
:105A0000B1FC94F8360000F0040010B92046FFF70E
:105A1000EBF910BD70B504460D46002600BF00BF6F
:105A2000FAF728FC064600BF00BF0020288094F843
:105A3000360008287BD2DFE800F004050607124391
:105A4000556700BF00BF00BF00BF00BF3046FAF778
:105A500015FC00BF00BF47F25310288072E000BF62
:105A60003B480078401C3A49087000BF00BF3046F0
:105A7000FAF704FC00BF00BF00BF14F88A0F401EF5
:105A8000207014F88A0928B9002084F836002046CE
:105A9000FFF7B2FF00BF00BF00BFFAF7EBFB0646FF
:105AA00000BF00BF2A480078401E2949087000BF87
:105AB00000BF3046FAF7E2FB00BF00BF00BF41E085
:105AC00014F88A0F401E207014F88A0910B90120BA
:105AD00084F8360000BF00BF3046FAF7CFFB00BFA6
